{
  "contractName": "User",
  "abi": [
    {
      "inputs": [
        {
          "internalType": "address",
          "name": "_userAddres",
          "type": "address"
        },
        {
          "components": [
            {
              "internalType": "string",
              "name": "name",
              "type": "string"
            },
            {
              "internalType": "string",
              "name": "citizenship",
              "type": "string"
            },
            {
              "internalType": "string",
              "name": "profession",
              "type": "string"
            },
            {
              "internalType": "bool",
              "name": "gender",
              "type": "bool"
            },
            {
              "internalType": "bool",
              "name": "haveDriversLicense",
              "type": "bool"
            },
            {
              "internalType": "uint16",
              "name": "weight",
              "type": "uint16"
            },
            {
              "internalType": "uint8",
              "name": "age",
              "type": "uint8"
            },
            {
              "internalType": "uint8",
              "name": "height",
              "type": "uint8"
            }
          ],
          "internalType": "struct User.UserData",
          "name": "_userData",
          "type": "tuple"
        }
      ],
      "stateMutability": "nonpayable",
      "type": "constructor"
    },
    {
      "anonymous": false,
      "inputs": [
        {
          "indexed": false,
          "internalType": "string",
          "name": "name",
          "type": "string"
        },
        {
          "indexed": true,
          "internalType": "address",
          "name": "account",
          "type": "address"
        }
      ],
      "name": "NewUserCreated",
      "type": "event"
    },
    {
      "anonymous": false,
      "inputs": [
        {
          "indexed": true,
          "internalType": "address",
          "name": "previousOwner",
          "type": "address"
        },
        {
          "indexed": true,
          "internalType": "address",
          "name": "newOwner",
          "type": "address"
        }
      ],
      "name": "OwnershipTransferred",
      "type": "event"
    },
    {
      "inputs": [],
      "name": "owner",
      "outputs": [
        {
          "internalType": "address",
          "name": "",
          "type": "address"
        }
      ],
      "stateMutability": "view",
      "type": "function"
    },
    {
      "inputs": [
        {
          "internalType": "address",
          "name": "newOwner",
          "type": "address"
        }
      ],
      "name": "transferOwnership",
      "outputs": [],
      "stateMutability": "nonpayable",
      "type": "function"
    },
    {
      "inputs": [
        {
          "internalType": "uint256",
          "name": "_nVCE",
          "type": "uint256"
        }
      ],
      "name": "receiveVCE",
      "outputs": [],
      "stateMutability": "nonpayable",
      "type": "function"
    },
    {
      "inputs": [
        {
          "internalType": "uint256",
          "name": "_nVCE",
          "type": "uint256"
        }
      ],
      "name": "subtractsVCE",
      "outputs": [],
      "stateMutability": "nonpayable",
      "type": "function"
    },
    {
      "inputs": [],
      "name": "getBalance",
      "outputs": [
        {
          "internalType": "uint256",
          "name": "",
          "type": "uint256"
        }
      ],
      "stateMutability": "view",
      "type": "function"
    },
    {
      "inputs": [],
      "name": "getData",
      "outputs": [
        {
          "components": [
            {
              "internalType": "string",
              "name": "name",
              "type": "string"
            },
            {
              "internalType": "string",
              "name": "citizenship",
              "type": "string"
            },
            {
              "internalType": "string",
              "name": "profession",
              "type": "string"
            },
            {
              "internalType": "bool",
              "name": "gender",
              "type": "bool"
            },
            {
              "internalType": "bool",
              "name": "haveDriversLicense",
              "type": "bool"
            },
            {
              "internalType": "uint16",
              "name": "weight",
              "type": "uint16"
            },
            {
              "internalType": "uint8",
              "name": "age",
              "type": "uint8"
            },
            {
              "internalType": "uint8",
              "name": "height",
              "type": "uint8"
            }
          ],
          "internalType": "struct User.UserData",
          "name": "",
          "type": "tuple"
        }
      ],
      "stateMutability": "view",
      "type": "function"
    },
    {
      "inputs": [],
      "name": "kill",
      "outputs": [],
      "stateMutability": "nonpayable",
      "type": "function"
    }
  ],
  "bytecode": "0x60806040523480156200001157600080fd5b5060405162001445380380620014458339818101604052810190620000379190620006f8565b336000806101000a81548173ffffffffffffffffffffffffffffffffffffffff021916908373ffffffffffffffffffffffffffffffffffffffff16021790555081600160006101000a81548173ffffffffffffffffffffffffffffffffffffffff021916908373ffffffffffffffffffffffffffffffffffffffff16021790555060006006819055508060026000820151816000019080519060200190620000e192919062000246565b5060208201518160010190805190602001906200010092919062000246565b5060408201518160020190805190602001906200011f92919062000246565b5060608201518160030160006101000a81548160ff02191690831515021790555060808201518160030160016101000a81548160ff02191690831515021790555060a08201518160030160026101000a81548161ffff021916908361ffff16021790555060c08201518160030160046101000a81548160ff021916908360ff16021790555060e08201518160030160056101000a81548160ff021916908360ff160217905550905050600160009054906101000a900473ffffffffffffffffffffffffffffffffffffffff1673ffffffffffffffffffffffffffffffffffffffff167f2998651e038e7124c8001d04d1b2796b3fdc96deb255aab91529d9cbeb1af239600260000160405162000236919062000875565b60405180910390a2505062000899565b82805462000254906200078d565b90600052602060002090601f016020900481019282620002785760008555620002c4565b82601f106200029357805160ff1916838001178555620002c4565b82800160010185558215620002c4579182015b82811115620002c3578251825591602001919060010190620002a6565b5b509050620002d39190620002d7565b5090565b5b80821115620002f2576000816000905550600101620002d8565b5090565b6000604051905090565b600080fd5b600080fd5b600073ffffffffffffffffffffffffffffffffffffffff82169050919050565b600062000337826200030a565b9050919050565b62000349816200032a565b81146200035557600080fd5b50565b60008151905062000369816200033e565b92915050565b600080fd5b6000601f19601f8301169050919050565b7f4e487b7100000000000000000000000000000000000000000000000000000000600052604160045260246000fd5b620003bf8262000374565b810181811067ffffffffffffffff82111715620003e157620003e062000385565b5b80604052505050565b6000620003f6620002f6565b9050620004048282620003b4565b919050565b600080fd5b600080fd5b600080fd5b600067ffffffffffffffff82111562000436576200043562000385565b5b620004418262000374565b9050602081019050919050565b60005b838110156200046e57808201518184015260208101905062000451565b838111156200047e576000848401525b50505050565b60006200049b620004958462000418565b620003ea565b905082815260208101848484011115620004ba57620004b962000413565b5b620004c78482856200044e565b509392505050565b600082601f830112620004e757620004e66200040e565b5b8151620004f984826020860162000484565b91505092915050565b60008115159050919050565b620005198162000502565b81146200052557600080fd5b50565b60008151905062000539816200050e565b92915050565b600061ffff82169050919050565b62000558816200053f565b81146200056457600080fd5b50565b60008151905062000578816200054d565b92915050565b600060ff82169050919050565b62000596816200057e565b8114620005a257600080fd5b50565b600081519050620005b6816200058b565b92915050565b60006101008284031215620005d657620005d56200036f565b5b620005e3610100620003ea565b9050600082015167ffffffffffffffff81111562000606576200060562000409565b5b6200061484828501620004cf565b600083015250602082015167ffffffffffffffff8111156200063b576200063a62000409565b5b6200064984828501620004cf565b602083015250604082015167ffffffffffffffff81111562000670576200066f62000409565b5b6200067e84828501620004cf565b6040830152506060620006948482850162000528565b6060830152506080620006aa8482850162000528565b60808301525060a0620006c08482850162000567565b60a08301525060c0620006d684828501620005a5565b60c08301525060e0620006ec84828501620005a5565b60e08301525092915050565b6000806040838503121562000712576200071162000300565b5b6000620007228582860162000358565b925050602083015167ffffffffffffffff81111562000746576200074562000305565b5b6200075485828601620005bc565b9150509250929050565b7f4e487b7100000000000000000000000000000000000000000000000000000000600052602260045260246000fd5b60006002820490506001821680620007a657607f821691505b60208210811415620007bd57620007bc6200075e565b5b50919050565b600082825260208201905092915050565b60008190508160005260206000209050919050565b60008154620007f8816200078d565b620008048186620007c3565b9450600182166000811462000822576001811462000835576200086c565b60ff19831686526020860193506200086c565b6200084085620007d4565b60005b83811015620008645781548189015260018201915060208101905062000843565b808801955050505b50505092915050565b60006020820190508181036000830152620008918184620007e9565b905092915050565b610b9c80620008a96000396000f3fe608060405234801561001057600080fd5b506004361061007d5760003560e01c806341c0e1b51161005b57806341c0e1b5146100da5780638da5cb5b146100e4578063f2fde38b14610102578063f60cc9821461011e5761007d565b806304703d581461008257806312065fe01461009e5780633bc5de30146100bc575b600080fd5b61009c60048036038101906100979190610744565b61013a565b005b6100a6610160565b6040516100b39190610780565b60405180910390f35b6100c46101c4565b6040516100d19190610946565b60405180910390f35b6100e2610425565b005b6100ec6104bc565b6040516100f991906109a9565b60405180910390f35b61011c600480360381019061011791906109f0565b6104e0565b005b61013860048036038101906101339190610744565b61062f565b005b6000811161014757600080fd5b61015c8160065461066390919063ffffffff16565b5050565b6000600160009054906101000a900473ffffffffffffffffffffffffffffffffffffffff1673ffffffffffffffffffffffffffffffffffffffff163373ffffffffffffffffffffffffffffffffffffffff16146101bc57600080fd5b600654905090565b6101cc6106b6565b6002604051806101000160405290816000820180546101ea90610a4c565b80601f016020809104026020016040519081016040528092919081815260200182805461021690610a4c565b80156102635780601f1061023857610100808354040283529160200191610263565b820191906000526020600020905b81548152906001019060200180831161024657829003601f168201915b5050505050815260200160018201805461027c90610a4c565b80601f01602080910402602001604051908101604052809291908181526020018280546102a890610a4c565b80156102f55780601f106102ca576101008083540402835291602001916102f5565b820191906000526020600020905b8154815290600101906020018083116102d857829003601f168201915b5050505050815260200160028201805461030e90610a4c565b80601f016020809104026020016040519081016040528092919081815260200182805461033a90610a4c565b80156103875780601f1061035c57610100808354040283529160200191610387565b820191906000526020600020905b81548152906001019060200180831161036a57829003601f168201915b505050505081526020016003820160009054906101000a900460ff161515151581526020016003820160019054906101000a900460ff161515151581526020016003820160029054906101000a900461ffff1661ffff1661ffff1681526020016003820160049054906101000a900460ff1660ff1660ff1681526020016003820160059054906101000a900460ff1660ff1660ff1681525050905090565b60008054906101000a900473ffffffffffffffffffffffffffffffffffffffff1673ffffffffffffffffffffffffffffffffffffffff163373ffffffffffffffffffffffffffffffffffffffff161461047d57600080fd5b60008060009054906101000a900473ffffffffffffffffffffffffffffffffffffffff1690508073ffffffffffffffffffffffffffffffffffffffff16ff5b60008054906101000a900473ffffffffffffffffffffffffffffffffffffffff1681565b60008054906101000a900473ffffffffffffffffffffffffffffffffffffffff1673ffffffffffffffffffffffffffffffffffffffff163373ffffffffffffffffffffffffffffffffffffffff161461053857600080fd5b600073ffffffffffffffffffffffffffffffffffffffff168173ffffffffffffffffffffffffffffffffffffffff16141561057257600080fd5b8073ffffffffffffffffffffffffffffffffffffffff1660008054906101000a900473ffffffffffffffffffffffffffffffffffffffff1673ffffffffffffffffffffffffffffffffffffffff167f8be0079c531659141344cd1fd0a4f28419497f9722a3daafe3b4186f6b6457e060405160405180910390a3806000806101000a81548173ffffffffffffffffffffffffffffffffffffffff021916908373ffffffffffffffffffffffffffffffffffffffff16021790555050565b60008111801561064157508060065410155b61064a57600080fd5b61065f8160065461068f90919063ffffffff16565b5050565b60008082846106729190610aad565b90508381101561068557610684610b03565b5b8091505092915050565b6000828211156106a2576106a1610b03565b5b81836106ae9190610b32565b905092915050565b604051806101000160405280606081526020016060815260200160608152602001600015158152602001600015158152602001600061ffff168152602001600060ff168152602001600060ff1681525090565b600080fd5b6000819050919050565b6107218161070e565b811461072c57600080fd5b50565b60008135905061073e81610718565b92915050565b60006020828403121561075a57610759610709565b5b60006107688482850161072f565b91505092915050565b61077a8161070e565b82525050565b60006020820190506107956000830184610771565b92915050565b600081519050919050565b600082825260208201905092915050565b60005b838110156107d55780820151818401526020810190506107ba565b838111156107e4576000848401525b50505050565b6000601f19601f8301169050919050565b60006108068261079b565b61081081856107a6565b93506108208185602086016107b7565b610829816107ea565b840191505092915050565b60008115159050919050565b61084981610834565b82525050565b600061ffff82169050919050565b6108668161084f565b82525050565b600060ff82169050919050565b6108828161086c565b82525050565b60006101008301600083015184820360008601526108a682826107fb565b915050602083015184820360208601526108c082826107fb565b915050604083015184820360408601526108da82826107fb565b91505060608301516108ef6060860182610840565b5060808301516109026080860182610840565b5060a083015161091560a086018261085d565b5060c083015161092860c0860182610879565b5060e083015161093b60e0860182610879565b508091505092915050565b600060208201905081810360008301526109608184610888565b905092915050565b600073ffffffffffffffffffffffffffffffffffffffff82169050919050565b600061099382610968565b9050919050565b6109a381610988565b82525050565b60006020820190506109be600083018461099a565b92915050565b6109cd81610988565b81146109d857600080fd5b50565b6000813590506109ea816109c4565b92915050565b600060208284031215610a0657610a05610709565b5b6000610a14848285016109db565b91505092915050565b7f4e487b7100000000000000000000000000000000000000000000000000000000600052602260045260246000fd5b60006002820490506001821680610a6457607f821691505b60208210811415610a7857610a77610a1d565b5b50919050565b7f4e487b7100000000000000000000000000000000000000000000000000000000600052601160045260246000fd5b6000610ab88261070e565b9150610ac38361070e565b9250827fffffffffffffffffffffffffffffffffffffffffffffffffffffffffffffffff03821115610af857610af7610a7e565b5b828201905092915050565b7f4e487b7100000000000000000000000000000000000000000000000000000000600052600160045260246000fd5b6000610b3d8261070e565b9150610b488361070e565b925082821015610b5b57610b5a610a7e565b5b82820390509291505056fea26469706673582212207f13a41c05021f9a05fbaf5c135f93f697c9054ea90014daec98040f6106801964736f6c634300080b0033",
  "immutableReferences": {},
  "source": "// SPDX-License-Identifier: MIT\r\npragma solidity >=0.4.22 <0.9.0;\r\n\r\nimport \"./safemath.sol\";\r\nimport \"./ownable.sol\";\r\n\r\n/// @title User`s data and actions\r\n/// @author @oleh\r\n/// @notice User's personal data and actions to interact with Votes\r\n/// @dev \r\ncontract User is Ownable {\r\n\r\n    event NewUserCreated(string name, address indexed account);\r\n\r\n    using SafeMath for uint;\r\n\r\n    struct UserData{\r\n        string name;\r\n\r\n        string citizenship;\r\n        string profession;\r\n\r\n        bool gender;\r\n        bool haveDriversLicense;\r\n\r\n        uint16 weight;\r\n        uint8 age;\r\n        uint8 height;\r\n    }\r\n\r\n    address account;\r\n    UserData data;\r\n    uint private balance;\r\n\r\n    /// @notice Created new user in system with gived address, random data end empty balance\r\n    /// @param _userAddres The user`s public address\r\n    constructor(address _userAddres, UserData memory _userData) {\r\n        // Set address to account value and new user balance to 0\r\n        account = _userAddres;\r\n        balance = 0;\r\n\r\n        // Set new user data\r\n        data = _userData;\r\n\r\n        // Emit event, info about new user in VoteS\r\n        emit NewUserCreated(data.name, account);\r\n    }\r\n\r\n    /// @notice Added some VCE to user`s balance\r\n    /// @param _nVCE Value in VCE to added to user`s balance\r\n    function receiveVCE(uint _nVCE) external {\r\n        require(_nVCE > 0);\r\n        balance.add(_nVCE);\r\n    }\r\n\r\n    /// @notice Added some VCE to user`s balance\r\n    /// @param _nVCE Value in VCE to added to user`s balance\r\n    function subtractsVCE(uint _nVCE) external {\r\n        require((_nVCE > 0) && (balance >= _nVCE));\r\n        balance.sub(_nVCE);\r\n    }\r\n\r\n    /// @notice Returns current user`s balance if requests current user\r\n    /// @return current user`s balance\r\n    function getBalance() external view returns (uint) {\r\n        require(msg.sender == account);\r\n        return balance;\r\n    }\r\n\r\n    /// @notice Returns user`s data\r\n    /// @return User`s data\r\n    function getData() external view returns (UserData memory) {\r\n        return data;        \r\n    }\r\n\r\n    /// @notice Test function deleted this contract\r\n    function kill() public onlyOwner {\r\n        address payable payableOwnerAddress = payable(address(owner));\r\n        selfdestruct(payableOwnerAddress);\r\n    }\r\n}\r\n",
  "sourcePath": "/mnt/d/IT/BlockChain/VoteS/contracts/User.sol",
  "compiler": {
    "name": "solc",
    "version": "0.8.11+commit.d7f03943.Emscripten.clang"
  },
  "schemaVersion": "3.4.4",
  "updatedAt": "2022-01-16T18:42:04.834Z",
  "devdoc": {
    "author": "@oleh",
    "kind": "dev",
    "methods": {
      "constructor": {
        "params": {
          "_userAddres": "The user`s public address"
        }
      },
      "getBalance()": {
        "returns": {
          "_0": "current user`s balance"
        }
      },
      "getData()": {
        "returns": {
          "_0": "User`s data"
        }
      },
      "receiveVCE(uint256)": {
        "params": {
          "_nVCE": "Value in VCE to added to user`s balance"
        }
      },
      "subtractsVCE(uint256)": {
        "params": {
          "_nVCE": "Value in VCE to added to user`s balance"
        }
      },
      "transferOwnership(address)": {
        "details": "Allows the current owner to transfer control of the contract to a newOwner.",
        "params": {
          "newOwner": "The address to transfer ownership to."
        }
      }
    },
    "title": "User`s data and actions",
    "version": 1
  },
  "userdoc": {
    "kind": "user",
    "methods": {
      "constructor": {
        "notice": "Created new user in system with gived address, random data end empty balance"
      },
      "getBalance()": {
        "notice": "Returns current user`s balance if requests current user"
      },
      "getData()": {
        "notice": "Returns user`s data"
      },
      "kill()": {
        "notice": "Test function deleted this contract"
      },
      "receiveVCE(uint256)": {
        "notice": "Added some VCE to user`s balance"
      },
      "subtractsVCE(uint256)": {
        "notice": "Added some VCE to user`s balance"
      }
    },
    "notice": "User's personal data and actions to interact with Votes",
    "version": 1
  }
}