{
  "contractName": "Voice",
  "abi": [
    {
      "inputs": [
        {
          "internalType": "uint256",
          "name": "_a",
          "type": "uint256"
        },
        {
          "internalType": "uint256",
          "name": "_b",
          "type": "uint256"
        }
      ],
      "name": "totalSupply",
      "outputs": [
        {
          "internalType": "uint256",
          "name": "",
          "type": "uint256"
        }
      ],
      "stateMutability": "pure",
      "type": "function"
    },
    {
      "inputs": [],
      "name": "balanceOf",
      "outputs": [],
      "stateMutability": "nonpayable",
      "type": "function"
    },
    {
      "inputs": [],
      "name": "transfer",
      "outputs": [],
      "stateMutability": "nonpayable",
      "type": "function"
    },
    {
      "inputs": [],
      "name": "transferFrom",
      "outputs": [],
      "stateMutability": "nonpayable",
      "type": "function"
    },
    {
      "inputs": [],
      "name": "takeOwnership",
      "outputs": [],
      "stateMutability": "nonpayable",
      "type": "function"
    },
    {
      "inputs": [],
      "name": "approve",
      "outputs": [],
      "stateMutability": "nonpayable",
      "type": "function"
    },
    {
      "inputs": [],
      "name": "allowance",
      "outputs": [],
      "stateMutability": "nonpayable",
      "type": "function"
    }
  ],
  "bytecode": "0x60806040526040518060400160405280600581526020017f566f6963650000000000000000000000000000000000000000000000000000008152506000908051906020019061004f9291906100ae565b506040518060400160405280600381526020017f56434500000000000000000000000000000000000000000000000000000000008152506001908051906020019061009b9291906100ae565b503480156100a857600080fd5b506101b2565b8280546100ba90610180565b90600052602060002090601f0160209004810192826100dc5760008555610123565b82601f106100f557805160ff1916838001178555610123565b82800160010185558215610123579182015b82811115610122578251825591602001919060010190610107565b5b5090506101309190610134565b5090565b5b8082111561014d576000816000905550600101610135565b5090565b7f4e487b7100000000000000000000000000000000000000000000000000000000600052602260045260246000fd5b6000600282049050600182168061019857607f821691505b602082108114156101ac576101ab610151565b5b50919050565b610275806101c16000396000f3fe608060405234801561001057600080fd5b506004361061007d5760003560e01c8063811c34d31161005b578063811c34d3146100a05780638a4068dd146100aa578063c2458d6b146100b4578063de242ff4146100e45761007d565b806312424e3f14610082578063605361721461008c578063722713f714610096575b600080fd5b61008a6100ee565b005b6100946100f0565b005b61009e6100f2565b005b6100a86100f4565b005b6100b26100f6565b005b6100ce60048036038101906100c99190610150565b6100f8565b6040516100db919061019f565b60405180910390f35b6100ec610113565b005b565b565b565b565b565b600080828461010791906101e9565b90508091505092915050565b565b600080fd5b6000819050919050565b61012d8161011a565b811461013857600080fd5b50565b60008135905061014a81610124565b92915050565b6000806040838503121561016757610166610115565b5b60006101758582860161013b565b92505060206101868582860161013b565b9150509250929050565b6101998161011a565b82525050565b60006020820190506101b46000830184610190565b92915050565b7f4e487b7100000000000000000000000000000000000000000000000000000000600052601160045260246000fd5b60006101f48261011a565b91506101ff8361011a565b9250827fffffffffffffffffffffffffffffffffffffffffffffffffffffffffffffffff03821115610234576102336101ba565b5b82820190509291505056fea264697066735822122054d4dde602fb4499648e34c956a32d2038572886d046b4730ea8d963b529a8d764736f6c634300080b0033",
  "immutableReferences": {},
  "source": "// SPDX-License-Identifier: MIT\npragma solidity >=0.4.22 <0.9.0;\n\n/// @title Internal currency VoteS system\n/// @author @oleh\n/// @notice Functions for working with Voice - the internal currency required to create your own votes\n/// @dev Realize ERC20 token standart\ncontract Voice {\n    //         \n    string name = \"Voice\";\n    //       ERC20       \n    string symbol = \"VCE\";\n\n    //        \n    function totalSupply(uint _a, uint _b) public pure returns (uint) {\n        uint c = _a + _b;\n        return c;\n    }\n\n    //        ,    \n    function balanceOf() public {\n        //\n    }\n\n    //      ;\n    function transfer() public {\n        //\n    }\n\n    //        ;\n    function transferFrom() public {\n        //\n    }\n\n    //      ,   ,              .   ,                   \n    function takeOwnership() public {\n        //\n    }\n\n    //         .  ,  ;\n    function approve() public {\n        //\n    }\n\n    //  ,    -   .\n    function allowance() public {\n        //\n    }\n}\n",
  "sourcePath": "/mnt/d/IT/BlockChain/VoteS/contracts/Voice.sol",
  "compiler": {
    "name": "solc",
    "version": "0.8.11+commit.d7f03943.Emscripten.clang"
  },
  "schemaVersion": "3.4.4",
  "updatedAt": "2022-01-16T18:42:04.847Z",
  "devdoc": {
    "author": "@oleh",
    "details": "Realize ERC20 token standart",
    "kind": "dev",
    "methods": {},
    "title": "Internal currency VoteS system",
    "version": 1
  },
  "userdoc": {
    "kind": "user",
    "methods": {},
    "notice": "Functions for working with Voice - the internal currency required to create your own votes",
    "version": 1
  }
}