{
  "contractName": "VoteS",
  "abi": [
    {
      "anonymous": false,
      "inputs": [
        {
          "indexed": true,
          "internalType": "address",
          "name": "usedId",
          "type": "address"
        },
        {
          "indexed": false,
          "internalType": "uint256",
          "name": "voteId",
          "type": "uint256"
        }
      ],
      "name": "FoundMatchPoll",
      "type": "event"
    },
    {
      "anonymous": false,
      "inputs": [
        {
          "indexed": true,
          "internalType": "address",
          "name": "previousOwner",
          "type": "address"
        },
        {
          "indexed": true,
          "internalType": "address",
          "name": "newOwner",
          "type": "address"
        }
      ],
      "name": "OwnershipTransferred",
      "type": "event"
    },
    {
      "inputs": [],
      "name": "owner",
      "outputs": [
        {
          "internalType": "address",
          "name": "",
          "type": "address"
        }
      ],
      "stateMutability": "view",
      "type": "function"
    },
    {
      "inputs": [
        {
          "internalType": "address",
          "name": "newOwner",
          "type": "address"
        }
      ],
      "name": "transferOwnership",
      "outputs": [],
      "stateMutability": "nonpayable",
      "type": "function"
    },
    {
      "inputs": [
        {
          "components": [
            {
              "internalType": "string",
              "name": "name",
              "type": "string"
            },
            {
              "internalType": "string",
              "name": "citizenship",
              "type": "string"
            },
            {
              "internalType": "string",
              "name": "profession",
              "type": "string"
            },
            {
              "internalType": "bool",
              "name": "gender",
              "type": "bool"
            },
            {
              "internalType": "bool",
              "name": "haveDriversLicense",
              "type": "bool"
            },
            {
              "internalType": "uint16",
              "name": "weight",
              "type": "uint16"
            },
            {
              "internalType": "uint8",
              "name": "age",
              "type": "uint8"
            },
            {
              "internalType": "uint8",
              "name": "height",
              "type": "uint8"
            }
          ],
          "internalType": "struct User.UserData",
          "name": "_userData",
          "type": "tuple"
        }
      ],
      "name": "createNewUser",
      "outputs": [
        {
          "internalType": "contract User",
          "name": "",
          "type": "address"
        }
      ],
      "stateMutability": "nonpayable",
      "type": "function"
    },
    {
      "inputs": [
        {
          "components": [
            {
              "internalType": "string",
              "name": "question",
              "type": "string"
            },
            {
              "internalType": "string[]",
              "name": "answers",
              "type": "string[]"
            }
          ],
          "internalType": "struct Vote.Core",
          "name": "_core",
          "type": "tuple"
        },
        {
          "internalType": "uint256",
          "name": "_maxRespondents",
          "type": "uint256"
        },
        {
          "internalType": "uint256",
          "name": "_voiceCost",
          "type": "uint256"
        },
        {
          "components": [
            {
              "internalType": "bool",
              "name": "isCheckedCitizenship",
              "type": "bool"
            },
            {
              "internalType": "string",
              "name": "citizenship",
              "type": "string"
            },
            {
              "internalType": "bool",
              "name": "isCheckedProfession",
              "type": "bool"
            },
            {
              "internalType": "string",
              "name": "profession",
              "type": "string"
            },
            {
              "internalType": "bool",
              "name": "isCheckedGender",
              "type": "bool"
            },
            {
              "internalType": "bool",
              "name": "gender",
              "type": "bool"
            },
            {
              "internalType": "bool",
              "name": "isCheckedDriversLicense",
              "type": "bool"
            },
            {
              "internalType": "bool",
              "name": "haveDriversLicense",
              "type": "bool"
            },
            {
              "internalType": "bool",
              "name": "isCheckedWeight",
              "type": "bool"
            },
            {
              "internalType": "uint16",
              "name": "minWeight",
              "type": "uint16"
            },
            {
              "internalType": "uint16",
              "name": "maxWeight",
              "type": "uint16"
            },
            {
              "internalType": "bool",
              "name": "isCheckedAge",
              "type": "bool"
            },
            {
              "internalType": "uint8",
              "name": "minAge",
              "type": "uint8"
            },
            {
              "internalType": "uint8",
              "name": "maxAge",
              "type": "uint8"
            },
            {
              "internalType": "bool",
              "name": "isCheckedHeight",
              "type": "bool"
            },
            {
              "internalType": "uint8",
              "name": "minHeight",
              "type": "uint8"
            },
            {
              "internalType": "uint8",
              "name": "maxHeight",
              "type": "uint8"
            }
          ],
          "internalType": "struct Vote.Filters",
          "name": "_filters",
          "type": "tuple"
        }
      ],
      "name": "createNewVoteByUser",
      "outputs": [
        {
          "internalType": "contract Vote",
          "name": "",
          "type": "address"
        }
      ],
      "stateMutability": "nonpayable",
      "type": "function"
    },
    {
      "inputs": [
        {
          "internalType": "address",
          "name": "_userId",
          "type": "address"
        },
        {
          "internalType": "uint256",
          "name": "_voteId",
          "type": "uint256"
        },
        {
          "internalType": "string",
          "name": "_answer",
          "type": "string"
        }
      ],
      "name": "voting",
      "outputs": [],
      "stateMutability": "nonpayable",
      "type": "function"
    },
    {
      "inputs": [
        {
          "internalType": "address",
          "name": "_userId",
          "type": "address"
        }
      ],
      "name": "getAllVoteIdsForUser",
      "outputs": [],
      "stateMutability": "nonpayable",
      "type": "function"
    },
    {
      "inputs": [],
      "name": "kill",
      "outputs": [],
      "stateMutability": "nonpayable",
      "type": "function"
    }
  ],
  "bytecode": "0x6080604052600260015533600260006101000a81548173ffffffffffffffffffffffffffffffffffffffff021916908373ffffffffffffffffffffffffffffffffffffffff16021790555034801561005657600080fd5b50336000806101000a81548173ffffffffffffffffffffffffffffffffffffffff021916908373ffffffffffffffffffffffffffffffffffffffff160217905550615c67806100a66000396000f3fe60806040523480156200001157600080fd5b5060043610620000885760003560e01c80639cfa7a8211620000635780639cfa7a8214620000f1578063a22ac5481462000127578063de2184bf1462000147578063f2fde38b14620001675762000088565b806341c0e1b5146200008d57806355a046db14620000995780638da5cb5b14620000cf575b600080fd5b6200009762000187565b005b620000b76004803603810190620000b1919062001815565b6200021f565b604051620000c6919062001950565b60405180910390f35b620000d962000781565b604051620000e8919062001992565b60405180910390f35b6200010f600480360381019062000109919062001aeb565b620007a5565b6040516200011e919062001b61565b60405180910390f35b6200014560048036038101906200013f919062001baf565b62000985565b005b6200016560048036038101906200015f919062001be1565b62000a62565b005b6200018560048036038101906200017f919062001baf565b62000c91565b005b60008054906101000a900473ffffffffffffffffffffffffffffffffffffffff1673ffffffffffffffffffffffffffffffffffffffff163373ffffffffffffffffffffffffffffffffffffffff1614620001e057600080fd5b60008060009054906101000a900473ffffffffffffffffffffffffffffffffffffffff1690508073ffffffffffffffffffffffffffffffffffffffff16ff5b600080600760003373ffffffffffffffffffffffffffffffffffffffff1673ffffffffffffffffffffffffffffffffffffffff16815260200190815260200160002060009054906101000a900473ffffffffffffffffffffffffffffffffffffffff1673ffffffffffffffffffffffffffffffffffffffff166312065fe06040518163ffffffff1660e01b8152600401602060405180830381865afa158015620002cd573d6000803e3d6000fd5b505050506040513d601f19601f82011682018060405250810190620002f3919062001c73565b905060006200030c858762000de290919063ffffffff16565b905060006064620003296001548462000de290919063ffffffff16565b62000335919062001d03565b90506000818362000347919062001d3b565b9050808410156200035757600080fd5b600760003373ffffffffffffffffffffffffffffffffffffffff1673ffffffffffffffffffffffffffffffffffffffff16815260200190815260200160002060009054906101000a900473ffffffffffffffffffffffffffffffffffffffff1673ffffffffffffffffffffffffffffffffffffffff1663f60cc982826040518263ffffffff1660e01b8152600401620003f1919062001da9565b600060405180830381600087803b1580156200040c57600080fd5b505af115801562000421573d6000803e3d6000fd5b5050505060076000600260009054906101000a900473ffffffffffffffffffffffffffffffffffffffff1673ffffffffffffffffffffffffffffffffffffffff1673ffffffffffffffffffffffffffffffffffffffff16815260200190815260200160002060009054906101000a900473ffffffffffffffffffffffffffffffffffffffff1673ffffffffffffffffffffffffffffffffffffffff166304703d58836040518263ffffffff1660e01b8152600401620004e1919062001da9565b600060405180830381600087803b158015620004fc57600080fd5b505af115801562000511573d6000803e3d6000fd5b505050506000898989896040516200052990620011fc565b6200053894939291906200213a565b604051809103906000f08015801562000555573d6000803e3d6000fd5b5090506000816040516020016200056d919062001950565b6040516020818303038152906040528051906020012060001c9050816009600083815260200190815260200160002060006101000a81548173ffffffffffffffffffffffffffffffffffffffff021916908373ffffffffffffffffffffffffffffffffffffffff16021790555033600a600083815260200190815260200160002060006101000a81548173ffffffffffffffffffffffffffffffffffffffff021916908373ffffffffffffffffffffffffffffffffffffffff16021790555088600b600083815260200190815260200160002081905550600c60003373ffffffffffffffffffffffffffffffffffffffff1673ffffffffffffffffffffffffffffffffffffffff168152602001908152602001600020829080600181540180825580915050600190039060005260206000200160009091909190916101000a81548173ffffffffffffffffffffffffffffffffffffffff021916908373ffffffffffffffffffffffffffffffffffffffff1602179055506004829080600181540180825580915050600190039060005260206000200160009091909190916101000a81548173ffffffffffffffffffffffffffffffffffffffff021916908373ffffffffffffffffffffffffffffffffffffffff1602179055506005819080600181540180825580915050600190039060005260206000200160009091909190915055819650505050505050949350505050565b60008054906101000a900473ffffffffffffffffffffffffffffffffffffffff1681565b6000801515600660003373ffffffffffffffffffffffffffffffffffffffff1673ffffffffffffffffffffffffffffffffffffffff16815260200190815260200160002060009054906101000a900460ff161515146200080457600080fd5b6000338360405162000816906200120a565b6200082392919062002263565b604051809103906000f08015801562000840573d6000803e3d6000fd5b5090506001600660003373ffffffffffffffffffffffffffffffffffffffff1673ffffffffffffffffffffffffffffffffffffffff16815260200190815260200160002060006101000a81548160ff02191690831515021790555080600760003373ffffffffffffffffffffffffffffffffffffffff1673ffffffffffffffffffffffffffffffffffffffff16815260200190815260200160002060006101000a81548173ffffffffffffffffffffffffffffffffffffffff021916908373ffffffffffffffffffffffffffffffffffffffff1602179055506003819080600181540180825580915050600190039060005260206000200160009091909190916101000a81548173ffffffffffffffffffffffffffffffffffffffff021916908373ffffffffffffffffffffffffffffffffffffffff16021790555080915050919050565b6000600580549050905060005b8181101562000a5d57620009c88360058381548110620009b757620009b662002297565b5b906000526020600020015462000e34565b1562000a40578273ffffffffffffffffffffffffffffffffffffffff167f4a7b631018dda5b6e298cc44c4b8282dfba754411c5b4c1bdba83d2a325007106005838154811062000a1d5762000a1c62002297565b5b906000526020600020015460405162000a37919062001da9565b60405180910390a25b62000a56600182620011cb90919063ffffffff16565b5062000992565b505050565b600a600083815260200190815260200160002060009054906101000a900473ffffffffffffffffffffffffffffffffffffffff1660405160200162000aa8919062001992565b604051602081830303815290604052805190602001208360405160200162000ad1919062001992565b60405160208183030381529060405280519060200120141562000af357600080fd5b62000aff838362000e34565b62000b0957600080fd5b6009600083815260200190815260200160002060009054906101000a900473ffffffffffffffffffffffffffffffffffffffff1673ffffffffffffffffffffffffffffffffffffffff1663c4c3fa95826040518263ffffffff1660e01b815260040162000b77919062002318565b600060405180830381600087803b15801562000b9257600080fd5b505af115801562000ba7573d6000803e3d6000fd5b50505050600760008473ffffffffffffffffffffffffffffffffffffffff1673ffffffffffffffffffffffffffffffffffffffff16815260200190815260200160002060009054906101000a900473ffffffffffffffffffffffffffffffffffffffff1673ffffffffffffffffffffffffffffffffffffffff166304703d58600b6000858152602001908152602001600020546040518263ffffffff1660e01b815260040162000c58919062001da9565b600060405180830381600087803b15801562000c7357600080fd5b505af115801562000c88573d6000803e3d6000fd5b50505050505050565b60008054906101000a900473ffffffffffffffffffffffffffffffffffffffff1673ffffffffffffffffffffffffffffffffffffffff163373ffffffffffffffffffffffffffffffffffffffff161462000cea57600080fd5b600073ffffffffffffffffffffffffffffffffffffffff168173ffffffffffffffffffffffffffffffffffffffff16141562000d2557600080fd5b8073ffffffffffffffffffffffffffffffffffffffff1660008054906101000a900473ffffffffffffffffffffffffffffffffffffffff1673ffffffffffffffffffffffffffffffffffffffff167f8be0079c531659141344cd1fd0a4f28419497f9722a3daafe3b4186f6b6457e060405160405180910390a3806000806101000a81548173ffffffffffffffffffffffffffffffffffffffff021916908373ffffffffffffffffffffffffffffffffffffffff16021790555050565b60008083141562000df7576000905062000e2e565b6000828462000e0791906200233c565b905082848262000e18919062001d03565b1462000e295762000e286200239d565b5b809150505b92915050565b6000806001905060006009600085815260200190815260200160002060009054906101000a900473ffffffffffffffffffffffffffffffffffffffff1673ffffffffffffffffffffffffffffffffffffffff1663259060d96040518163ffffffff1660e01b8152600401600060405180830381865afa15801562000ebc573d6000803e3d6000fd5b505050506040513d6000823e3d601f19601f8201168201806040525081019062000ee7919062002684565b90506000600760008773ffffffffffffffffffffffffffffffffffffffff1673ffffffffffffffffffffffffffffffffffffffff16815260200190815260200160002060009054906101000a900473ffffffffffffffffffffffffffffffffffffffff1673ffffffffffffffffffffffffffffffffffffffff16633bc5de306040518163ffffffff1660e01b8152600401600060405180830381865afa15801562000f96573d6000803e3d6000fd5b505050506040513d6000823e3d601f19601f8201168201806040525081019062000fc1919062002811565b90508160000151156200103457806020015160405160200162000fe5919062002318565b60405160208183030381529060405280519060200120826020015160405160200162001012919062002318565b60405160208183030381529060405280519060200120146200103357600092505b5b816040015115620010a557806040015160405160200162001056919062002318565b60405160208183030381529060405280519060200120826060015160405160200162001083919062002318565b6040516020818303038152906040528051906020012014620010a457600092505b5b816080015115620010ca57806060015115158260a00151151514620010c957600092505b5b8160c0015115620010ef57806080015115158260e00151151514620010ee57600092505b5b8161010001511562001137578060a0015161ffff1682610120015161ffff1611806200112b575081610140015161ffff168160a0015161ffff16115b156200113657600092505b5b816101600151156200117b578060c0015160ff1682610180015160ff1611806200116f5750816101a0015160ff168160c0015160ff16115b156200117a57600092505b5b816101c0015115620011bf578060e0015160ff16826101e0015160ff161180620011b3575081610200015160ff168160e0015160ff16115b15620011be57600092505b5b82935050505092915050565b6000808284620011dc919062001d3b565b905083811015620011f257620011f16200239d565b5b8091505092915050565b611f8a806200286383390190565b61144580620047ed83390190565b6000604051905090565b600080fd5b600080fd5b600080fd5b6000601f19601f8301169050919050565b7f4e487b7100000000000000000000000000000000000000000000000000000000600052604160045260246000fd5b6200127c8262001231565b810181811067ffffffffffffffff821117156200129e576200129d62001242565b5b80604052505050565b6000620012b362001218565b9050620012c1828262001271565b919050565b600080fd5b600080fd5b600080fd5b600067ffffffffffffffff821115620012f357620012f262001242565b5b620012fe8262001231565b9050602081019050919050565b82818337600083830152505050565b6000620013316200132b84620012d5565b620012a7565b90508281526020810184848401111562001350576200134f620012d0565b5b6200135d8482856200130b565b509392505050565b600082601f8301126200137d576200137c620012cb565b5b81356200138f8482602086016200131a565b91505092915050565b600067ffffffffffffffff821115620013b657620013b562001242565b5b602082029050602081019050919050565b600080fd5b6000620013e3620013dd8462001398565b620012a7565b90508083825260208201905060208402830185811115620014095762001408620013c7565b5b835b818110156200145757803567ffffffffffffffff811115620014325762001431620012cb565b5b80860162001441898262001365565b855260208501945050506020810190506200140b565b5050509392505050565b600082601f830112620014795762001478620012cb565b5b81356200148b848260208601620013cc565b91505092915050565b600060408284031215620014ad57620014ac6200122c565b5b620014b96040620012a7565b9050600082013567ffffffffffffffff811115620014dc57620014db620012c6565b5b620014ea8482850162001365565b600083015250602082013567ffffffffffffffff811115620015115762001510620012c6565b5b6200151f8482850162001461565b60208301525092915050565b6000819050919050565b62001540816200152b565b81146200154c57600080fd5b50565b600081359050620015608162001535565b92915050565b60008115159050919050565b6200157d8162001566565b81146200158957600080fd5b50565b6000813590506200159d8162001572565b92915050565b600061ffff82169050919050565b620015bc81620015a3565b8114620015c857600080fd5b50565b600081359050620015dc81620015b1565b92915050565b600060ff82169050919050565b620015fa81620015e2565b81146200160657600080fd5b50565b6000813590506200161a81620015ef565b92915050565b600061022082840312156200163a57620016396200122c565b5b62001647610220620012a7565b9050600062001659848285016200158c565b600083015250602082013567ffffffffffffffff81111562001680576200167f620012c6565b5b6200168e8482850162001365565b6020830152506040620016a4848285016200158c565b604083015250606082013567ffffffffffffffff811115620016cb57620016ca620012c6565b5b620016d98482850162001365565b6060830152506080620016ef848285016200158c565b60808301525060a062001705848285016200158c565b60a08301525060c06200171b848285016200158c565b60c08301525060e062001731848285016200158c565b60e08301525061010062001748848285016200158c565b610100830152506101206200176084828501620015cb565b610120830152506101406200177884828501620015cb565b6101408301525061016062001790848285016200158c565b61016083015250610180620017a88482850162001609565b610180830152506101a0620017c08482850162001609565b6101a0830152506101c0620017d8848285016200158c565b6101c0830152506101e0620017f08482850162001609565b6101e083015250610200620018088482850162001609565b6102008301525092915050565b6000806000806080858703121562001832576200183162001222565b5b600085013567ffffffffffffffff81111562001853576200185262001227565b5b620018618782880162001494565b945050602062001874878288016200154f565b935050604062001887878288016200154f565b925050606085013567ffffffffffffffff811115620018ab57620018aa62001227565b5b620018b98782880162001620565b91505092959194509250565b600073ffffffffffffffffffffffffffffffffffffffff82169050919050565b6000819050919050565b6000620019106200190a6200190484620018c5565b620018e5565b620018c5565b9050919050565b60006200192482620018ef565b9050919050565b6000620019388262001917565b9050919050565b6200194a816200192b565b82525050565b60006020820190506200196760008301846200193f565b92915050565b60006200197a82620018c5565b9050919050565b6200198c816200196d565b82525050565b6000602082019050620019a9600083018462001981565b92915050565b60006101008284031215620019c957620019c86200122c565b5b620019d6610100620012a7565b9050600082013567ffffffffffffffff811115620019f957620019f8620012c6565b5b62001a078482850162001365565b600083015250602082013567ffffffffffffffff81111562001a2e5762001a2d620012c6565b5b62001a3c8482850162001365565b602083015250604082013567ffffffffffffffff81111562001a635762001a62620012c6565b5b62001a718482850162001365565b604083015250606062001a87848285016200158c565b606083015250608062001a9d848285016200158c565b60808301525060a062001ab384828501620015cb565b60a08301525060c062001ac98482850162001609565b60c08301525060e062001adf8482850162001609565b60e08301525092915050565b60006020828403121562001b045762001b0362001222565b5b600082013567ffffffffffffffff81111562001b255762001b2462001227565b5b62001b3384828501620019af565b91505092915050565b600062001b498262001917565b9050919050565b62001b5b8162001b3c565b82525050565b600060208201905062001b78600083018462001b50565b92915050565b62001b89816200196d565b811462001b9557600080fd5b50565b60008135905062001ba98162001b7e565b92915050565b60006020828403121562001bc85762001bc762001222565b5b600062001bd88482850162001b98565b91505092915050565b60008060006060848603121562001bfd5762001bfc62001222565b5b600062001c0d8682870162001b98565b935050602062001c20868287016200154f565b925050604084013567ffffffffffffffff81111562001c445762001c4362001227565b5b62001c528682870162001365565b9150509250925092565b60008151905062001c6d8162001535565b92915050565b60006020828403121562001c8c5762001c8b62001222565b5b600062001c9c8482850162001c5c565b91505092915050565b7f4e487b7100000000000000000000000000000000000000000000000000000000600052601260045260246000fd5b7f4e487b7100000000000000000000000000000000000000000000000000000000600052601160045260246000fd5b600062001d10826200152b565b915062001d1d836200152b565b92508262001d305762001d2f62001ca5565b5b828204905092915050565b600062001d48826200152b565b915062001d55836200152b565b9250827fffffffffffffffffffffffffffffffffffffffffffffffffffffffffffffffff0382111562001d8d5762001d8c62001cd4565b5b828201905092915050565b62001da3816200152b565b82525050565b600060208201905062001dc0600083018462001d98565b92915050565b600081519050919050565b600082825260208201905092915050565b60005b8381101562001e0257808201518184015260208101905062001de5565b8381111562001e12576000848401525b50505050565b600062001e258262001dc6565b62001e31818562001dd1565b935062001e4381856020860162001de2565b62001e4e8162001231565b840191505092915050565b600081519050919050565b600082825260208201905092915050565b6000819050602082019050919050565b600062001e93838362001e18565b905092915050565b6000602082019050919050565b600062001eb58262001e59565b62001ec1818562001e64565b93508360208202850162001ed58562001e75565b8060005b8581101562001f17578484038952815162001ef5858262001e85565b945062001f028362001e9b565b925060208a0199505060018101905062001ed9565b50829750879550505050505092915050565b6000604083016000830151848203600086015262001f48828262001e18565b9150506020830151848203602086015262001f64828262001ea8565b9150508091505092915050565b62001f7c8162001566565b82525050565b62001f8d81620015a3565b82525050565b62001f9e81620015e2565b82525050565b60006102208301600083015162001fbf600086018262001f71565b506020830151848203602086015262001fd9828262001e18565b915050604083015162001ff0604086018262001f71565b50606083015184820360608601526200200a828262001e18565b915050608083015162002021608086018262001f71565b5060a08301516200203660a086018262001f71565b5060c08301516200204b60c086018262001f71565b5060e08301516200206060e086018262001f71565b506101008301516200207761010086018262001f71565b506101208301516200208e61012086018262001f82565b50610140830151620020a561014086018262001f82565b50610160830151620020bc61016086018262001f71565b50610180830151620020d361018086018262001f93565b506101a0830151620020ea6101a086018262001f93565b506101c0830151620021016101c086018262001f71565b506101e0830151620021186101e086018262001f93565b506102008301516200212f61020086018262001f93565b508091505092915050565b6000608082019050818103600083015262002156818762001f29565b905062002167602083018662001d98565b62002176604083018562001d98565b81810360608301526200218a818462001fa4565b905095945050505050565b6000610100830160008301518482036000860152620021b5828262001e18565b91505060208301518482036020860152620021d1828262001e18565b91505060408301518482036040860152620021ed828262001e18565b915050606083015162002204606086018262001f71565b50608083015162002219608086018262001f71565b5060a08301516200222e60a086018262001f82565b5060c08301516200224360c086018262001f93565b5060e08301516200225860e086018262001f93565b508091505092915050565b60006040820190506200227a600083018562001981565b81810360208301526200228e818462002195565b90509392505050565b7f4e487b7100000000000000000000000000000000000000000000000000000000600052603260045260246000fd5b600082825260208201905092915050565b6000620022e48262001dc6565b620022f08185620022c6565b93506200230281856020860162001de2565b6200230d8162001231565b840191505092915050565b60006020820190508181036000830152620023348184620022d7565b905092915050565b600062002349826200152b565b915062002356836200152b565b9250817fffffffffffffffffffffffffffffffffffffffffffffffffffffffffffffffff048311821515161562002392576200239162001cd4565b5b828202905092915050565b7f4e487b7100000000000000000000000000000000000000000000000000000000600052600160045260246000fd5b600081519050620023dd8162001572565b92915050565b6000620023fa620023f484620012d5565b620012a7565b905082815260208101848484011115620024195762002418620012d0565b5b6200242684828562001de2565b509392505050565b600082601f830112620024465762002445620012cb565b5b815162002458848260208601620023e3565b91505092915050565b6000815190506200247281620015b1565b92915050565b6000815190506200248981620015ef565b92915050565b60006102208284031215620024a957620024a86200122c565b5b620024b6610220620012a7565b90506000620024c884828501620023cc565b600083015250602082015167ffffffffffffffff811115620024ef57620024ee620012c6565b5b620024fd848285016200242e565b60208301525060406200251384828501620023cc565b604083015250606082015167ffffffffffffffff8111156200253a5762002539620012c6565b5b62002548848285016200242e565b60608301525060806200255e84828501620023cc565b60808301525060a06200257484828501620023cc565b60a08301525060c06200258a84828501620023cc565b60c08301525060e0620025a084828501620023cc565b60e083015250610100620025b784828501620023cc565b61010083015250610120620025cf8482850162002461565b61012083015250610140620025e78482850162002461565b61014083015250610160620025ff84828501620023cc565b61016083015250610180620026178482850162002478565b610180830152506101a06200262f8482850162002478565b6101a0830152506101c06200264784828501620023cc565b6101c0830152506101e06200265f8482850162002478565b6101e083015250610200620026778482850162002478565b6102008301525092915050565b6000602082840312156200269d576200269c62001222565b5b600082015167ffffffffffffffff811115620026be57620026bd62001227565b5b620026cc848285016200248f565b91505092915050565b60006101008284031215620026ef57620026ee6200122c565b5b620026fc610100620012a7565b9050600082015167ffffffffffffffff8111156200271f576200271e620012c6565b5b6200272d848285016200242e565b600083015250602082015167ffffffffffffffff811115620027545762002753620012c6565b5b62002762848285016200242e565b602083015250604082015167ffffffffffffffff811115620027895762002788620012c6565b5b62002797848285016200242e565b6040830152506060620027ad84828501620023cc565b6060830152506080620027c384828501620023cc565b60808301525060a0620027d98482850162002461565b60a08301525060c0620027ef8482850162002478565b60c08301525060e0620028058482850162002478565b60e08301525092915050565b6000602082840312156200282a576200282962001222565b5b600082015167ffffffffffffffff8111156200284b576200284a62001227565b5b6200285984828501620026d5565b9150509291505056fe60806040523480156200001157600080fd5b5060405162001f8a38038062001f8a833981810160405281019062000037919062000ba3565b336000806101000a81548173ffffffffffffffffffffffffffffffffffffffff021916908373ffffffffffffffffffffffffffffffffffffffff160217905550836001600082015181600001908051906020019062000098929190620003fa565b506020820151816001019080519060200190620000b79291906200048b565b50905050604051806080016040528084815260200160008152602001838152602001620000f38486620003a860201b620006c71790919060201c565b81525060036000820151816000015560208201518160010155604082015181600201556060820151816003015590505080600760008201518160000160006101000a81548160ff021916908315150217905550602082015181600101908051906020019062000164929190620003fa565b5060408201518160020160006101000a81548160ff0219169083151502179055506060820151816003019080519060200190620001a3929190620003fa565b5060808201518160040160006101000a81548160ff02191690831515021790555060a08201518160040160016101000a81548160ff02191690831515021790555060c08201518160040160026101000a81548160ff02191690831515021790555060e08201518160040160036101000a81548160ff0219169083151502179055506101008201518160040160046101000a81548160ff0219169083151502179055506101208201518160040160056101000a81548161ffff021916908361ffff1602179055506101408201518160040160076101000a81548161ffff021916908361ffff1602179055506101608201518160040160096101000a81548160ff02191690831515021790555061018082015181600401600a6101000a81548160ff021916908360ff1602179055506101a082015181600401600b6101000a81548160ff021916908360ff1602179055506101c082015181600401600c6101000a81548160ff0219169083151502179055506101e082015181600401600d6101000a81548160ff021916908360ff16021790555061020082015181600401600e6101000a81548160ff021916908360ff1602179055509050507f41ef7f9c27fb15c88a25dd3897a54cc7b8b46bcbb81f0a94ae0b7f5ed927cd1260016000016003600201546040516200039692919062000d7b565b60405180910390a15050505062000ed5565b600080831415620003bd5760009050620003f4565b60008284620003cd919062000dde565b9050828482620003de919062000e6e565b14620003ef57620003ee62000ea6565b5b809150505b92915050565b828054620004089062000c82565b90600052602060002090601f0160209004810192826200042c576000855562000478565b82601f106200044757805160ff191683800117855562000478565b8280016001018555821562000478579182015b82811115620004775782518255916020019190600101906200045a565b5b509050620004879190620004f2565b5090565b828054828255906000526020600020908101928215620004df579160200282015b82811115620004de578251829080519060200190620004cd929190620003fa565b5091602001919060010190620004ac565b5b509050620004ee919062000511565b5090565b5b808211156200050d576000816000905550600101620004f3565b5090565b5b808211156200053557600081816200052b919062000539565b5060010162000512565b5090565b508054620005479062000c82565b6000825580601f106200055b57506200057c565b601f0160209004906000526020600020908101906200057b9190620004f2565b5b50565b6000604051905090565b600080fd5b600080fd5b600080fd5b6000601f19601f8301169050919050565b7f4e487b7100000000000000000000000000000000000000000000000000000000600052604160045260246000fd5b620005e38262000598565b810181811067ffffffffffffffff82111715620006055762000604620005a9565b5b80604052505050565b60006200061a6200057f565b9050620006288282620005d8565b919050565b600080fd5b600080fd5b600080fd5b600067ffffffffffffffff8211156200065a5762000659620005a9565b5b620006658262000598565b9050602081019050919050565b60005b838110156200069257808201518184015260208101905062000675565b83811115620006a2576000848401525b50505050565b6000620006bf620006b9846200063c565b6200060e565b905082815260208101848484011115620006de57620006dd62000637565b5b620006eb84828562000672565b509392505050565b600082601f8301126200070b576200070a62000632565b5b81516200071d848260208601620006a8565b91505092915050565b600067ffffffffffffffff821115620007445762000743620005a9565b5b602082029050602081019050919050565b600080fd5b6000620007716200076b8462000726565b6200060e565b9050808382526020820190506020840283018581111562000797576200079662000755565b5b835b81811015620007e557805167ffffffffffffffff811115620007c057620007bf62000632565b5b808601620007cf8982620006f3565b8552602085019450505060208101905062000799565b5050509392505050565b600082601f83011262000807576200080662000632565b5b8151620008198482602086016200075a565b91505092915050565b6000604082840312156200083b576200083a62000593565b5b6200084760406200060e565b9050600082015167ffffffffffffffff8111156200086a57620008696200062d565b5b6200087884828501620006f3565b600083015250602082015167ffffffffffffffff8111156200089f576200089e6200062d565b5b620008ad84828501620007ef565b60208301525092915050565b6000819050919050565b620008ce81620008b9565b8114620008da57600080fd5b50565b600081519050620008ee81620008c3565b92915050565b60008115159050919050565b6200090b81620008f4565b81146200091757600080fd5b50565b6000815190506200092b8162000900565b92915050565b600061ffff82169050919050565b6200094a8162000931565b81146200095657600080fd5b50565b6000815190506200096a816200093f565b92915050565b600060ff82169050919050565b620009888162000970565b81146200099457600080fd5b50565b600081519050620009a8816200097d565b92915050565b60006102208284031215620009c857620009c762000593565b5b620009d56102206200060e565b90506000620009e7848285016200091a565b600083015250602082015167ffffffffffffffff81111562000a0e5762000a0d6200062d565b5b62000a1c84828501620006f3565b602083015250604062000a32848285016200091a565b604083015250606082015167ffffffffffffffff81111562000a595762000a586200062d565b5b62000a6784828501620006f3565b606083015250608062000a7d848285016200091a565b60808301525060a062000a93848285016200091a565b60a08301525060c062000aa9848285016200091a565b60c08301525060e062000abf848285016200091a565b60e08301525061010062000ad6848285016200091a565b6101008301525061012062000aee8482850162000959565b6101208301525061014062000b068482850162000959565b6101408301525061016062000b1e848285016200091a565b6101608301525061018062000b368482850162000997565b610180830152506101a062000b4e8482850162000997565b6101a0830152506101c062000b66848285016200091a565b6101c0830152506101e062000b7e8482850162000997565b6101e08301525061020062000b968482850162000997565b6102008301525092915050565b6000806000806080858703121562000bc05762000bbf62000589565b5b600085015167ffffffffffffffff81111562000be15762000be06200058e565b5b62000bef8782880162000822565b945050602062000c0287828801620008dd565b935050604062000c1587828801620008dd565b925050606085015167ffffffffffffffff81111562000c395762000c386200058e565b5b62000c4787828801620009ae565b91505092959194509250565b7f4e487b7100000000000000000000000000000000000000000000000000000000600052602260045260246000fd5b6000600282049050600182168062000c9b57607f821691505b6020821081141562000cb25762000cb162000c53565b5b50919050565b600082825260208201905092915050565b60008190508160005260206000209050919050565b6000815462000ced8162000c82565b62000cf9818662000cb8565b9450600182166000811462000d17576001811462000d2a5762000d61565b60ff198316865260208601935062000d61565b62000d358562000cc9565b60005b8381101562000d595781548189015260018201915060208101905062000d38565b808801955050505b50505092915050565b62000d7581620008b9565b82525050565b6000604082019050818103600083015262000d97818562000cde565b905062000da8602083018462000d6a565b9392505050565b7f4e487b7100000000000000000000000000000000000000000000000000000000600052601160045260246000fd5b600062000deb82620008b9565b915062000df883620008b9565b9250817fffffffffffffffffffffffffffffffffffffffffffffffffffffffffffffffff048311821515161562000e345762000e3362000daf565b5b828202905092915050565b7f4e487b7100000000000000000000000000000000000000000000000000000000600052601260045260246000fd5b600062000e7b82620008b9565b915062000e8883620008b9565b92508262000e9b5762000e9a62000e3f565b5b828204905092915050565b7f4e487b7100000000000000000000000000000000000000000000000000000000600052600160045260246000fd5b6110a58062000ee56000396000f3fe608060405234801561001057600080fd5b50600436106100575760003560e01c8063259060d91461005c57806341c0e1b51461007a5780638da5cb5b14610084578063c4c3fa95146100a2578063f2fde38b146100be575b600080fd5b6100646100da565b6040516100719190610a6e565b60405180910390f35b6100826103c0565b005b61008c610457565b6040516100999190610ad1565b60405180910390f35b6100bc60048036038101906100b79190610c35565b61047b565b005b6100d860048036038101906100d39190610caa565b610578565b005b6100e2610763565b6007604051806102200160405290816000820160009054906101000a900460ff1615151515815260200160018201805461011b90610d06565b80601f016020809104026020016040519081016040528092919081815260200182805461014790610d06565b80156101945780601f1061016957610100808354040283529160200191610194565b820191906000526020600020905b81548152906001019060200180831161017757829003601f168201915b505050505081526020016002820160009054906101000a900460ff161515151581526020016003820180546101c890610d06565b80601f01602080910402602001604051908101604052809291908181526020018280546101f490610d06565b80156102415780601f1061021657610100808354040283529160200191610241565b820191906000526020600020905b81548152906001019060200180831161022457829003601f168201915b505050505081526020016004820160009054906101000a900460ff161515151581526020016004820160019054906101000a900460ff161515151581526020016004820160029054906101000a900460ff161515151581526020016004820160039054906101000a900460ff161515151581526020016004820160049054906101000a900460ff161515151581526020016004820160059054906101000a900461ffff1661ffff1661ffff1681526020016004820160079054906101000a900461ffff1661ffff1661ffff1681526020016004820160099054906101000a900460ff1615151515815260200160048201600a9054906101000a900460ff1660ff1660ff16815260200160048201600b9054906101000a900460ff1660ff1660ff16815260200160048201600c9054906101000a900460ff1615151515815260200160048201600d9054906101000a900460ff1660ff1660ff16815260200160048201600e9054906101000a900460ff1660ff1660ff1681525050905090565b60008054906101000a900473ffffffffffffffffffffffffffffffffffffffff1673ffffffffffffffffffffffffffffffffffffffff163373ffffffffffffffffffffffffffffffffffffffff161461041857600080fd5b60008060009054906101000a900473ffffffffffffffffffffffffffffffffffffffff1690508073ffffffffffffffffffffffffffffffffffffffff16ff5b60008054906101000a900473ffffffffffffffffffffffffffffffffffffffff1681565b6003600001546003600101541015610539576104a6600160036001015461071090919063ffffffff16565b506104c3600360020154600380015461073c90919063ffffffff16565b506104f66001600c836040516104d99190610d74565b90815260200160405180910390205461071090919063ffffffff16565b507fa3dbc2fa41d7dd90b7c37c6eae2759ab00912eaccce7e92b5c19370bfb159bf060016000018260405161052c929190610e6a565b60405180910390a1610575565b7fc4fbc2fe14f13b02acb03413d4cb09401c429c7b402e8218ca1891b31a726daf600160000160405161056c9190610ea1565b60405180910390a15b50565b60008054906101000a900473ffffffffffffffffffffffffffffffffffffffff1673ffffffffffffffffffffffffffffffffffffffff163373ffffffffffffffffffffffffffffffffffffffff16146105d057600080fd5b600073ffffffffffffffffffffffffffffffffffffffff168173ffffffffffffffffffffffffffffffffffffffff16141561060a57600080fd5b8073ffffffffffffffffffffffffffffffffffffffff1660008054906101000a900473ffffffffffffffffffffffffffffffffffffffff1673ffffffffffffffffffffffffffffffffffffffff167f8be0079c531659141344cd1fd0a4f28419497f9722a3daafe3b4186f6b6457e060405160405180910390a3806000806101000a81548173ffffffffffffffffffffffffffffffffffffffff021916908373ffffffffffffffffffffffffffffffffffffffff16021790555050565b6000808314156106da576000905061070a565b600082846106e89190610efc565b90508284826106f79190610f85565b1461070557610704610fb6565b5b809150505b92915050565b600080828461071f9190610fe5565b90508381101561073257610731610fb6565b5b8091505092915050565b60008282111561074f5761074e610fb6565b5b818361075b919061103b565b905092915050565b6040518061022001604052806000151581526020016060815260200160001515815260200160608152602001600015158152602001600015158152602001600015158152602001600015158152602001600015158152602001600061ffff168152602001600061ffff168152602001600015158152602001600060ff168152602001600060ff168152602001600015158152602001600060ff168152602001600060ff1681525090565b60008115159050919050565b6108228161080d565b82525050565b600081519050919050565b600082825260208201905092915050565b60005b83811015610862578082015181840152602081019050610847565b83811115610871576000848401525b50505050565b6000601f19601f8301169050919050565b600061089382610828565b61089d8185610833565b93506108ad818560208601610844565b6108b681610877565b840191505092915050565b600061ffff82169050919050565b6108d8816108c1565b82525050565b600060ff82169050919050565b6108f4816108de565b82525050565b6000610220830160008301516109136000860182610819565b506020830151848203602086015261092b8282610888565b91505060408301516109406040860182610819565b50606083015184820360608601526109588282610888565b915050608083015161096d6080860182610819565b5060a083015161098060a0860182610819565b5060c083015161099360c0860182610819565b5060e08301516109a660e0860182610819565b506101008301516109bb610100860182610819565b506101208301516109d06101208601826108cf565b506101408301516109e56101408601826108cf565b506101608301516109fa610160860182610819565b50610180830151610a0f6101808601826108eb565b506101a0830151610a246101a08601826108eb565b506101c0830151610a396101c0860182610819565b506101e0830151610a4e6101e08601826108eb565b50610200830151610a636102008601826108eb565b508091505092915050565b60006020820190508181036000830152610a8881846108fa565b905092915050565b600073ffffffffffffffffffffffffffffffffffffffff82169050919050565b6000610abb82610a90565b9050919050565b610acb81610ab0565b82525050565b6000602082019050610ae66000830184610ac2565b92915050565b6000604051905090565b600080fd5b600080fd5b600080fd5b600080fd5b7f4e487b7100000000000000000000000000000000000000000000000000000000600052604160045260246000fd5b610b4282610877565b810181811067ffffffffffffffff82111715610b6157610b60610b0a565b5b80604052505050565b6000610b74610aec565b9050610b808282610b39565b919050565b600067ffffffffffffffff821115610ba057610b9f610b0a565b5b610ba982610877565b9050602081019050919050565b82818337600083830152505050565b6000610bd8610bd384610b85565b610b6a565b905082815260208101848484011115610bf457610bf3610b05565b5b610bff848285610bb6565b509392505050565b600082601f830112610c1c57610c1b610b00565b5b8135610c2c848260208601610bc5565b91505092915050565b600060208284031215610c4b57610c4a610af6565b5b600082013567ffffffffffffffff811115610c6957610c68610afb565b5b610c7584828501610c07565b91505092915050565b610c8781610ab0565b8114610c9257600080fd5b50565b600081359050610ca481610c7e565b92915050565b600060208284031215610cc057610cbf610af6565b5b6000610cce84828501610c95565b91505092915050565b7f4e487b7100000000000000000000000000000000000000000000000000000000600052602260045260246000fd5b60006002820490506001821680610d1e57607f821691505b60208210811415610d3257610d31610cd7565b5b50919050565b600081905092915050565b6000610d4e82610828565b610d588185610d38565b9350610d68818560208601610844565b80840191505092915050565b6000610d808284610d43565b915081905092915050565b600082825260208201905092915050565b60008190508160005260206000209050919050565b60008154610dbe81610d06565b610dc88186610d8b565b94506001821660008114610de35760018114610df557610e28565b60ff1983168652602086019350610e28565b610dfe85610d9c565b60005b83811015610e2057815481890152600182019150602081019050610e01565b808801955050505b50505092915050565b6000610e3c82610828565b610e468185610d8b565b9350610e56818560208601610844565b610e5f81610877565b840191505092915050565b60006040820190508181036000830152610e848185610db1565b90508181036020830152610e988184610e31565b90509392505050565b60006020820190508181036000830152610ebb8184610db1565b905092915050565b6000819050919050565b7f4e487b7100000000000000000000000000000000000000000000000000000000600052601160045260246000fd5b6000610f0782610ec3565b9150610f1283610ec3565b9250817fffffffffffffffffffffffffffffffffffffffffffffffffffffffffffffffff0483118215151615610f4b57610f4a610ecd565b5b828202905092915050565b7f4e487b7100000000000000000000000000000000000000000000000000000000600052601260045260246000fd5b6000610f9082610ec3565b9150610f9b83610ec3565b925082610fab57610faa610f56565b5b828204905092915050565b7f4e487b7100000000000000000000000000000000000000000000000000000000600052600160045260246000fd5b6000610ff082610ec3565b9150610ffb83610ec3565b9250827fffffffffffffffffffffffffffffffffffffffffffffffffffffffffffffffff038211156110305761102f610ecd565b5b828201905092915050565b600061104682610ec3565b915061105183610ec3565b92508282101561106457611063610ecd565b5b82820390509291505056fea2646970667358221220a642b30d470109c57828112f09a63cc19bc3133ff41f0710579211f1c9e6305664736f6c634300080b003360806040523480156200001157600080fd5b5060405162001445380380620014458339818101604052810190620000379190620006f8565b336000806101000a81548173ffffffffffffffffffffffffffffffffffffffff021916908373ffffffffffffffffffffffffffffffffffffffff16021790555081600160006101000a81548173ffffffffffffffffffffffffffffffffffffffff021916908373ffffffffffffffffffffffffffffffffffffffff16021790555060006006819055508060026000820151816000019080519060200190620000e192919062000246565b5060208201518160010190805190602001906200010092919062000246565b5060408201518160020190805190602001906200011f92919062000246565b5060608201518160030160006101000a81548160ff02191690831515021790555060808201518160030160016101000a81548160ff02191690831515021790555060a08201518160030160026101000a81548161ffff021916908361ffff16021790555060c08201518160030160046101000a81548160ff021916908360ff16021790555060e08201518160030160056101000a81548160ff021916908360ff160217905550905050600160009054906101000a900473ffffffffffffffffffffffffffffffffffffffff1673ffffffffffffffffffffffffffffffffffffffff167f2998651e038e7124c8001d04d1b2796b3fdc96deb255aab91529d9cbeb1af239600260000160405162000236919062000875565b60405180910390a2505062000899565b82805462000254906200078d565b90600052602060002090601f016020900481019282620002785760008555620002c4565b82601f106200029357805160ff1916838001178555620002c4565b82800160010185558215620002c4579182015b82811115620002c3578251825591602001919060010190620002a6565b5b509050620002d39190620002d7565b5090565b5b80821115620002f2576000816000905550600101620002d8565b5090565b6000604051905090565b600080fd5b600080fd5b600073ffffffffffffffffffffffffffffffffffffffff82169050919050565b600062000337826200030a565b9050919050565b62000349816200032a565b81146200035557600080fd5b50565b60008151905062000369816200033e565b92915050565b600080fd5b6000601f19601f8301169050919050565b7f4e487b7100000000000000000000000000000000000000000000000000000000600052604160045260246000fd5b620003bf8262000374565b810181811067ffffffffffffffff82111715620003e157620003e062000385565b5b80604052505050565b6000620003f6620002f6565b9050620004048282620003b4565b919050565b600080fd5b600080fd5b600080fd5b600067ffffffffffffffff82111562000436576200043562000385565b5b620004418262000374565b9050602081019050919050565b60005b838110156200046e57808201518184015260208101905062000451565b838111156200047e576000848401525b50505050565b60006200049b620004958462000418565b620003ea565b905082815260208101848484011115620004ba57620004b962000413565b5b620004c78482856200044e565b509392505050565b600082601f830112620004e757620004e66200040e565b5b8151620004f984826020860162000484565b91505092915050565b60008115159050919050565b620005198162000502565b81146200052557600080fd5b50565b60008151905062000539816200050e565b92915050565b600061ffff82169050919050565b62000558816200053f565b81146200056457600080fd5b50565b60008151905062000578816200054d565b92915050565b600060ff82169050919050565b62000596816200057e565b8114620005a257600080fd5b50565b600081519050620005b6816200058b565b92915050565b60006101008284031215620005d657620005d56200036f565b5b620005e3610100620003ea565b9050600082015167ffffffffffffffff81111562000606576200060562000409565b5b6200061484828501620004cf565b600083015250602082015167ffffffffffffffff8111156200063b576200063a62000409565b5b6200064984828501620004cf565b602083015250604082015167ffffffffffffffff81111562000670576200066f62000409565b5b6200067e84828501620004cf565b6040830152506060620006948482850162000528565b6060830152506080620006aa8482850162000528565b60808301525060a0620006c08482850162000567565b60a08301525060c0620006d684828501620005a5565b60c08301525060e0620006ec84828501620005a5565b60e08301525092915050565b6000806040838503121562000712576200071162000300565b5b6000620007228582860162000358565b925050602083015167ffffffffffffffff81111562000746576200074562000305565b5b6200075485828601620005bc565b9150509250929050565b7f4e487b7100000000000000000000000000000000000000000000000000000000600052602260045260246000fd5b60006002820490506001821680620007a657607f821691505b60208210811415620007bd57620007bc6200075e565b5b50919050565b600082825260208201905092915050565b60008190508160005260206000209050919050565b60008154620007f8816200078d565b620008048186620007c3565b9450600182166000811462000822576001811462000835576200086c565b60ff19831686526020860193506200086c565b6200084085620007d4565b60005b83811015620008645781548189015260018201915060208101905062000843565b808801955050505b50505092915050565b60006020820190508181036000830152620008918184620007e9565b905092915050565b610b9c80620008a96000396000f3fe608060405234801561001057600080fd5b506004361061007d5760003560e01c806341c0e1b51161005b57806341c0e1b5146100da5780638da5cb5b146100e4578063f2fde38b14610102578063f60cc9821461011e5761007d565b806304703d581461008257806312065fe01461009e5780633bc5de30146100bc575b600080fd5b61009c60048036038101906100979190610744565b61013a565b005b6100a6610160565b6040516100b39190610780565b60405180910390f35b6100c46101c4565b6040516100d19190610946565b60405180910390f35b6100e2610425565b005b6100ec6104bc565b6040516100f991906109a9565b60405180910390f35b61011c600480360381019061011791906109f0565b6104e0565b005b61013860048036038101906101339190610744565b61062f565b005b6000811161014757600080fd5b61015c8160065461066390919063ffffffff16565b5050565b6000600160009054906101000a900473ffffffffffffffffffffffffffffffffffffffff1673ffffffffffffffffffffffffffffffffffffffff163373ffffffffffffffffffffffffffffffffffffffff16146101bc57600080fd5b600654905090565b6101cc6106b6565b6002604051806101000160405290816000820180546101ea90610a4c565b80601f016020809104026020016040519081016040528092919081815260200182805461021690610a4c565b80156102635780601f1061023857610100808354040283529160200191610263565b820191906000526020600020905b81548152906001019060200180831161024657829003601f168201915b5050505050815260200160018201805461027c90610a4c565b80601f01602080910402602001604051908101604052809291908181526020018280546102a890610a4c565b80156102f55780601f106102ca576101008083540402835291602001916102f5565b820191906000526020600020905b8154815290600101906020018083116102d857829003601f168201915b5050505050815260200160028201805461030e90610a4c565b80601f016020809104026020016040519081016040528092919081815260200182805461033a90610a4c565b80156103875780601f1061035c57610100808354040283529160200191610387565b820191906000526020600020905b81548152906001019060200180831161036a57829003601f168201915b505050505081526020016003820160009054906101000a900460ff161515151581526020016003820160019054906101000a900460ff161515151581526020016003820160029054906101000a900461ffff1661ffff1661ffff1681526020016003820160049054906101000a900460ff1660ff1660ff1681526020016003820160059054906101000a900460ff1660ff1660ff1681525050905090565b60008054906101000a900473ffffffffffffffffffffffffffffffffffffffff1673ffffffffffffffffffffffffffffffffffffffff163373ffffffffffffffffffffffffffffffffffffffff161461047d57600080fd5b60008060009054906101000a900473ffffffffffffffffffffffffffffffffffffffff1690508073ffffffffffffffffffffffffffffffffffffffff16ff5b60008054906101000a900473ffffffffffffffffffffffffffffffffffffffff1681565b60008054906101000a900473ffffffffffffffffffffffffffffffffffffffff1673ffffffffffffffffffffffffffffffffffffffff163373ffffffffffffffffffffffffffffffffffffffff161461053857600080fd5b600073ffffffffffffffffffffffffffffffffffffffff168173ffffffffffffffffffffffffffffffffffffffff16141561057257600080fd5b8073ffffffffffffffffffffffffffffffffffffffff1660008054906101000a900473ffffffffffffffffffffffffffffffffffffffff1673ffffffffffffffffffffffffffffffffffffffff167f8be0079c531659141344cd1fd0a4f28419497f9722a3daafe3b4186f6b6457e060405160405180910390a3806000806101000a81548173ffffffffffffffffffffffffffffffffffffffff021916908373ffffffffffffffffffffffffffffffffffffffff16021790555050565b60008111801561064157508060065410155b61064a57600080fd5b61065f8160065461068f90919063ffffffff16565b5050565b60008082846106729190610aad565b90508381101561068557610684610b03565b5b8091505092915050565b6000828211156106a2576106a1610b03565b5b81836106ae9190610b32565b905092915050565b604051806101000160405280606081526020016060815260200160608152602001600015158152602001600015158152602001600061ffff168152602001600060ff168152602001600060ff1681525090565b600080fd5b6000819050919050565b6107218161070e565b811461072c57600080fd5b50565b60008135905061073e81610718565b92915050565b60006020828403121561075a57610759610709565b5b60006107688482850161072f565b91505092915050565b61077a8161070e565b82525050565b60006020820190506107956000830184610771565b92915050565b600081519050919050565b600082825260208201905092915050565b60005b838110156107d55780820151818401526020810190506107ba565b838111156107e4576000848401525b50505050565b6000601f19601f8301169050919050565b60006108068261079b565b61081081856107a6565b93506108208185602086016107b7565b610829816107ea565b840191505092915050565b60008115159050919050565b61084981610834565b82525050565b600061ffff82169050919050565b6108668161084f565b82525050565b600060ff82169050919050565b6108828161086c565b82525050565b60006101008301600083015184820360008601526108a682826107fb565b915050602083015184820360208601526108c082826107fb565b915050604083015184820360408601526108da82826107fb565b91505060608301516108ef6060860182610840565b5060808301516109026080860182610840565b5060a083015161091560a086018261085d565b5060c083015161092860c0860182610879565b5060e083015161093b60e0860182610879565b508091505092915050565b600060208201905081810360008301526109608184610888565b905092915050565b600073ffffffffffffffffffffffffffffffffffffffff82169050919050565b600061099382610968565b9050919050565b6109a381610988565b82525050565b60006020820190506109be600083018461099a565b92915050565b6109cd81610988565b81146109d857600080fd5b50565b6000813590506109ea816109c4565b92915050565b600060208284031215610a0657610a05610709565b5b6000610a14848285016109db565b91505092915050565b7f4e487b7100000000000000000000000000000000000000000000000000000000600052602260045260246000fd5b60006002820490506001821680610a6457607f821691505b60208210811415610a7857610a77610a1d565b5b50919050565b7f4e487b7100000000000000000000000000000000000000000000000000000000600052601160045260246000fd5b6000610ab88261070e565b9150610ac38361070e565b9250827fffffffffffffffffffffffffffffffffffffffffffffffffffffffffffffffff03821115610af857610af7610a7e565b5b828201905092915050565b7f4e487b7100000000000000000000000000000000000000000000000000000000600052600160045260246000fd5b6000610b3d8261070e565b9150610b488361070e565b925082821015610b5b57610b5a610a7e565b5b82820390509291505056fea26469706673582212207f13a41c05021f9a05fbaf5c135f93f697c9054ea90014daec98040f6106801964736f6c634300080b0033a2646970667358221220f1758cdfe55e772fd230800c708d2a10f8d442fec416730e11f4cfa28700920164736f6c634300080b0033",
  "immutableReferences": {},
  "source": "// SPDX-License-Identifier: MIT\r\npragma solidity >=0.4.22 <0.9.0;\r\n\r\nimport \"./User.sol\";\r\nimport \"./Vote.sol\";\r\nimport \"./safemath.sol\";\r\nimport \"./ownable.sol\";\r\n\r\n/// @title Main contract in DApp, contains all the logic of user interaction, votes, VCE\r\n/// @author @oleh\r\n/// @notice \r\n/// @dev \r\ncontract VoteS is Ownable {\r\n\r\n    event FoundMatchPoll(address indexed usedId, uint voteId);\r\n\r\n    using SafeMath for uint;\r\n\r\n    // Config info\r\n    // TODO: realize as *.config file\r\n    uint COMMISSION_PERCENTAGE = 2;\r\n    address SYSTEM_CREATOR_ADDRESS = msg.sender;\r\n\r\n    // Users and Votes data\r\n    User[] private users;\r\n    Vote[] private votes;\r\n    uint[] private voteIds;\r\n    \r\n    // User`s mappings\r\n    mapping (address => bool) private addresToInitialized;\r\n    mapping (address => User) private addressToUser;\r\n    mapping (address => Vote[]) private addressToPassedVotes;\r\n \r\n    // Vote`s mappings\r\n    mapping (uint => Vote) private voteIdToVote;\r\n    mapping (uint => address) private voteIdToOwner;\r\n    mapping (uint => uint) private voteIdToVoiceCost;\r\n    mapping (address => Vote[]) private ownerAddressToHisVotes;\r\n\r\n    /// @notice Created new user if system hasn`t it\r\n    /// @return new created user\r\n    function createNewUser(User.UserData memory _userData) external returns (User) {\r\n        // Checking if a user is not register in system\r\n        require(addresToInitialized[msg.sender] == false);\r\n\r\n        User user = new User(msg.sender, _userData);\r\n\r\n        // Seting new user address in mappings for further use\r\n        addresToInitialized[msg.sender] = true;\r\n        addressToUser[msg.sender] = user;\r\n        users.push(user);\r\n\r\n        return user;\r\n    }\r\n\r\n    /// @notice Created new vote by current user address\r\n    /// @param _core Text of vote`s question and all vote`s answer options\r\n    /// @param _maxRespondents Number of respondents to vote\r\n    /// @param _voiceCost Reward for one respondent for voting\r\n    /// @param _filters Filters which new vote will using for users\r\n    /// @return new created vote\r\n    function createNewVoteByUser(Vote.Core memory _core,\r\n    uint _maxRespondents, uint _voiceCost,\r\n    Vote.Filters memory _filters) external returns (Vote) {\r\n        // Checking the availability of the necessary VCE in the creator's account\r\n        uint userBalace = addressToUser[msg.sender].getBalance();\r\n        uint respondentsRewards = _maxRespondents.mul(_voiceCost);\r\n        uint commission = respondentsRewards.mul(COMMISSION_PERCENTAGE)/100;\r\n        uint necessaryBalance = respondentsRewards + commission;\r\n\r\n        require(userBalace >= necessaryBalance);\r\n\r\n        // Subtracting VCE from creator's account\r\n        addressToUser[msg.sender].subtractsVCE(necessaryBalance);\r\n\r\n        // Sending commission to VoteS system creator\r\n        addressToUser[SYSTEM_CREATOR_ADDRESS].receiveVCE(commission);\r\n\r\n        // Creating vote\r\n        Vote vote = new Vote(_core, _maxRespondents, _voiceCost, _filters);\r\n\r\n        // Seting new vote ID in mappings for further use\r\n        uint voteId = uint(keccak256(abi.encode(vote)));\r\n        voteIdToVote[voteId] = vote;\r\n        voteIdToOwner[voteId] = msg.sender;\r\n        voteIdToVoiceCost[voteId] = _voiceCost;\r\n        ownerAddressToHisVotes[msg.sender].push(vote);\r\n        votes.push(vote);\r\n        voteIds.push(voteId);\r\n\r\n        return vote;\r\n    }\r\n\r\n    /// @notice Write all info about user`s voting\r\n    /// @param _userId Address of respondent user\r\n    /// @param _voteId Voting vote\r\n    /// @param _answer Answer option\r\n    function voting(address _userId, uint _voteId, string memory _answer) external {\r\n        // Checking what user does not respond to own vote\r\n        require(keccak256(abi.encode(_userId)) != keccak256(abi.encode(voteIdToOwner[_voteId])));\r\n        require(_checkUsersDataForVoteRequirements(_userId, _voteId));\r\n\r\n        // Added answer to vote`s statistics and add VCE to user`s balance\r\n        voteIdToVote[_voteId].addRespondentAnswer(_answer);\r\n        addressToUser[_userId].receiveVCE(voteIdToVoiceCost[_voteId]);\r\n    }\r\n\r\n    /// @notice Search and return all votes which filters match with user`s info\r\n    /// @param _userId Address of user\r\n    function getAllVoteIdsForUser(address _userId) external {\r\n        uint nVotes = voteIds.length;\r\n        for (uint i = 0; i < nVotes; i.add(1)) {\r\n            if (_checkUsersDataForVoteRequirements(_userId, voteIds[i])) {\r\n                emit FoundMatchPoll(_userId, voteIds[i]);\r\n            }\r\n        }\r\n    }\r\n\r\n    /// @notice Checks if the user matches the voting requirements\r\n    /// @param _userId Address of respondent user\r\n    /// @param _voteId Voting vote\r\n    /// @return true when user can voting this vote, false in another case\r\n    function _checkUsersDataForVoteRequirements(address _userId, uint _voteId) private view returns (bool) {\r\n        bool conclusion = true;\r\n\r\n        // Set info about vote`s requirements\r\n        Vote.Filters memory filters = voteIdToVote[_voteId].getFilters();\r\n\r\n        // Set user`s info\r\n        User.UserData memory userData = addressToUser[_userId].getData();\r\n\r\n        // Check all requirements\r\n        if (filters.isCheckedCitizenship) {\r\n            if (keccak256(abi.encode(filters.citizenship)) != keccak256(abi.encode(userData.citizenship))) {\r\n                conclusion = false;\r\n            }\r\n        }\r\n        if (filters.isCheckedProfession) {\r\n            if (keccak256(abi.encode(filters.profession)) != keccak256(abi.encode(userData.profession))) {\r\n                conclusion = false;\r\n            }\r\n        }\r\n        if (filters.isCheckedGender) {\r\n            if (filters.gender != userData.gender) {\r\n                conclusion = false;\r\n            }\r\n        }\r\n        if (filters.isCheckedDriversLicense) {\r\n            if (filters.haveDriversLicense != userData.haveDriversLicense) {\r\n                conclusion = false;\r\n            }\r\n        }\r\n        if (filters.isCheckedWeight) {\r\n            if (filters.minWeight > userData.weight || userData.weight > filters.maxWeight) {\r\n                conclusion = false;\r\n            }\r\n        }\r\n        if (filters.isCheckedAge) {\r\n            if (filters.minAge > userData.age || userData.age > filters.maxAge) {\r\n                conclusion = false;\r\n            }\r\n        }\r\n        if (filters.isCheckedHeight) {\r\n            if (filters.minHeight > userData.height || userData.height > filters.maxHeight) {\r\n                conclusion = false;\r\n            }\r\n        }\r\n\r\n        return conclusion;\r\n    }\r\n\r\n    /// @notice Test function deleted this contract\r\n    function kill() public onlyOwner {\r\n        address payable payableOwnerAddress = payable(address(owner));\r\n        selfdestruct(payableOwnerAddress);\r\n    }\r\n}\r\n",
  "sourcePath": "/mnt/d/IT/BlockChain/VoteS/contracts/VoteS.sol",
  "compiler": {
    "name": "solc",
    "version": "0.8.11+commit.d7f03943.Emscripten.clang"
  },
  "schemaVersion": "3.4.4",
  "updatedAt": "2022-01-16T18:42:04.870Z",
  "devdoc": {
    "author": "@oleh",
    "kind": "dev",
    "methods": {
      "createNewUser((string,string,string,bool,bool,uint16,uint8,uint8))": {
        "returns": {
          "_0": "new created user"
        }
      },
      "createNewVoteByUser((string,string[]),uint256,uint256,(bool,string,bool,string,bool,bool,bool,bool,bool,uint16,uint16,bool,uint8,uint8,bool,uint8,uint8))": {
        "params": {
          "_core": "Text of vote`s question and all vote`s answer options",
          "_filters": "Filters which new vote will using for users",
          "_maxRespondents": "Number of respondents to vote",
          "_voiceCost": "Reward for one respondent for voting"
        },
        "returns": {
          "_0": "new created vote"
        }
      },
      "getAllVoteIdsForUser(address)": {
        "params": {
          "_userId": "Address of user"
        }
      },
      "transferOwnership(address)": {
        "details": "Allows the current owner to transfer control of the contract to a newOwner.",
        "params": {
          "newOwner": "The address to transfer ownership to."
        }
      },
      "voting(address,uint256,string)": {
        "params": {
          "_answer": "Answer option",
          "_userId": "Address of respondent user",
          "_voteId": "Voting vote"
        }
      }
    },
    "title": "Main contract in DApp, contains all the logic of user interaction, votes, VCE",
    "version": 1
  },
  "userdoc": {
    "kind": "user",
    "methods": {
      "createNewUser((string,string,string,bool,bool,uint16,uint8,uint8))": {
        "notice": "Created new user if system hasn`t it"
      },
      "createNewVoteByUser((string,string[]),uint256,uint256,(bool,string,bool,string,bool,bool,bool,bool,bool,uint16,uint16,bool,uint8,uint8,bool,uint8,uint8))": {
        "notice": "Created new vote by current user address"
      },
      "getAllVoteIdsForUser(address)": {
        "notice": "Search and return all votes which filters match with user`s info"
      },
      "kill()": {
        "notice": "Test function deleted this contract"
      },
      "voting(address,uint256,string)": {
        "notice": "Write all info about user`s voting"
      }
    },
    "version": 1
  }
}