{
  "contractName": "Vote",
  "abi": [
    {
      "inputs": [
        {
          "components": [
            {
              "internalType": "string",
              "name": "question",
              "type": "string"
            },
            {
              "internalType": "string[]",
              "name": "answers",
              "type": "string[]"
            }
          ],
          "internalType": "struct Vote.Core",
          "name": "_core",
          "type": "tuple"
        },
        {
          "internalType": "uint256",
          "name": "_maxRespondents",
          "type": "uint256"
        },
        {
          "internalType": "uint256",
          "name": "_voiceCost",
          "type": "uint256"
        },
        {
          "components": [
            {
              "internalType": "bool",
              "name": "isCheckedCitizenship",
              "type": "bool"
            },
            {
              "internalType": "string",
              "name": "citizenship",
              "type": "string"
            },
            {
              "internalType": "bool",
              "name": "isCheckedProfession",
              "type": "bool"
            },
            {
              "internalType": "string",
              "name": "profession",
              "type": "string"
            },
            {
              "internalType": "bool",
              "name": "isCheckedGender",
              "type": "bool"
            },
            {
              "internalType": "bool",
              "name": "gender",
              "type": "bool"
            },
            {
              "internalType": "bool",
              "name": "isCheckedDriversLicense",
              "type": "bool"
            },
            {
              "internalType": "bool",
              "name": "haveDriversLicense",
              "type": "bool"
            },
            {
              "internalType": "bool",
              "name": "isCheckedWeight",
              "type": "bool"
            },
            {
              "internalType": "uint16",
              "name": "minWeight",
              "type": "uint16"
            },
            {
              "internalType": "uint16",
              "name": "maxWeight",
              "type": "uint16"
            },
            {
              "internalType": "bool",
              "name": "isCheckedAge",
              "type": "bool"
            },
            {
              "internalType": "uint8",
              "name": "minAge",
              "type": "uint8"
            },
            {
              "internalType": "uint8",
              "name": "maxAge",
              "type": "uint8"
            },
            {
              "internalType": "bool",
              "name": "isCheckedHeight",
              "type": "bool"
            },
            {
              "internalType": "uint8",
              "name": "minHeight",
              "type": "uint8"
            },
            {
              "internalType": "uint8",
              "name": "maxHeight",
              "type": "uint8"
            }
          ],
          "internalType": "struct Vote.Filters",
          "name": "_filters",
          "type": "tuple"
        }
      ],
      "stateMutability": "nonpayable",
      "type": "constructor"
    },
    {
      "anonymous": false,
      "inputs": [
        {
          "indexed": false,
          "internalType": "string",
          "name": "question",
          "type": "string"
        },
        {
          "indexed": false,
          "internalType": "string",
          "name": "answers",
          "type": "string"
        }
      ],
      "name": "AnswerTaken",
      "type": "event"
    },
    {
      "anonymous": false,
      "inputs": [
        {
          "indexed": false,
          "internalType": "string",
          "name": "question",
          "type": "string"
        },
        {
          "indexed": false,
          "internalType": "uint256",
          "name": "cost",
          "type": "uint256"
        }
      ],
      "name": "NewVoteCreated",
      "type": "event"
    },
    {
      "anonymous": false,
      "inputs": [
        {
          "indexed": true,
          "internalType": "address",
          "name": "previousOwner",
          "type": "address"
        },
        {
          "indexed": true,
          "internalType": "address",
          "name": "newOwner",
          "type": "address"
        }
      ],
      "name": "OwnershipTransferred",
      "type": "event"
    },
    {
      "anonymous": false,
      "inputs": [
        {
          "indexed": false,
          "internalType": "string",
          "name": "question",
          "type": "string"
        }
      ],
      "name": "VoteFilled",
      "type": "event"
    },
    {
      "inputs": [],
      "name": "owner",
      "outputs": [
        {
          "internalType": "address",
          "name": "",
          "type": "address"
        }
      ],
      "stateMutability": "view",
      "type": "function"
    },
    {
      "inputs": [
        {
          "internalType": "address",
          "name": "newOwner",
          "type": "address"
        }
      ],
      "name": "transferOwnership",
      "outputs": [],
      "stateMutability": "nonpayable",
      "type": "function"
    },
    {
      "inputs": [
        {
          "internalType": "string",
          "name": "_answer",
          "type": "string"
        }
      ],
      "name": "addRespondentAnswer",
      "outputs": [],
      "stateMutability": "nonpayable",
      "type": "function"
    },
    {
      "inputs": [],
      "name": "getFilters",
      "outputs": [
        {
          "components": [
            {
              "internalType": "bool",
              "name": "isCheckedCitizenship",
              "type": "bool"
            },
            {
              "internalType": "string",
              "name": "citizenship",
              "type": "string"
            },
            {
              "internalType": "bool",
              "name": "isCheckedProfession",
              "type": "bool"
            },
            {
              "internalType": "string",
              "name": "profession",
              "type": "string"
            },
            {
              "internalType": "bool",
              "name": "isCheckedGender",
              "type": "bool"
            },
            {
              "internalType": "bool",
              "name": "gender",
              "type": "bool"
            },
            {
              "internalType": "bool",
              "name": "isCheckedDriversLicense",
              "type": "bool"
            },
            {
              "internalType": "bool",
              "name": "haveDriversLicense",
              "type": "bool"
            },
            {
              "internalType": "bool",
              "name": "isCheckedWeight",
              "type": "bool"
            },
            {
              "internalType": "uint16",
              "name": "minWeight",
              "type": "uint16"
            },
            {
              "internalType": "uint16",
              "name": "maxWeight",
              "type": "uint16"
            },
            {
              "internalType": "bool",
              "name": "isCheckedAge",
              "type": "bool"
            },
            {
              "internalType": "uint8",
              "name": "minAge",
              "type": "uint8"
            },
            {
              "internalType": "uint8",
              "name": "maxAge",
              "type": "uint8"
            },
            {
              "internalType": "bool",
              "name": "isCheckedHeight",
              "type": "bool"
            },
            {
              "internalType": "uint8",
              "name": "minHeight",
              "type": "uint8"
            },
            {
              "internalType": "uint8",
              "name": "maxHeight",
              "type": "uint8"
            }
          ],
          "internalType": "struct Vote.Filters",
          "name": "",
          "type": "tuple"
        }
      ],
      "stateMutability": "view",
      "type": "function"
    },
    {
      "inputs": [],
      "name": "kill",
      "outputs": [],
      "stateMutability": "nonpayable",
      "type": "function"
    }
  ],
  "bytecode": "0x60806040523480156200001157600080fd5b5060405162001f8a38038062001f8a833981810160405281019062000037919062000ba3565b336000806101000a81548173ffffffffffffffffffffffffffffffffffffffff021916908373ffffffffffffffffffffffffffffffffffffffff160217905550836001600082015181600001908051906020019062000098929190620003fa565b506020820151816001019080519060200190620000b79291906200048b565b50905050604051806080016040528084815260200160008152602001838152602001620000f38486620003a860201b620006c71790919060201c565b81525060036000820151816000015560208201518160010155604082015181600201556060820151816003015590505080600760008201518160000160006101000a81548160ff021916908315150217905550602082015181600101908051906020019062000164929190620003fa565b5060408201518160020160006101000a81548160ff0219169083151502179055506060820151816003019080519060200190620001a3929190620003fa565b5060808201518160040160006101000a81548160ff02191690831515021790555060a08201518160040160016101000a81548160ff02191690831515021790555060c08201518160040160026101000a81548160ff02191690831515021790555060e08201518160040160036101000a81548160ff0219169083151502179055506101008201518160040160046101000a81548160ff0219169083151502179055506101208201518160040160056101000a81548161ffff021916908361ffff1602179055506101408201518160040160076101000a81548161ffff021916908361ffff1602179055506101608201518160040160096101000a81548160ff02191690831515021790555061018082015181600401600a6101000a81548160ff021916908360ff1602179055506101a082015181600401600b6101000a81548160ff021916908360ff1602179055506101c082015181600401600c6101000a81548160ff0219169083151502179055506101e082015181600401600d6101000a81548160ff021916908360ff16021790555061020082015181600401600e6101000a81548160ff021916908360ff1602179055509050507f41ef7f9c27fb15c88a25dd3897a54cc7b8b46bcbb81f0a94ae0b7f5ed927cd1260016000016003600201546040516200039692919062000d7b565b60405180910390a15050505062000ed5565b600080831415620003bd5760009050620003f4565b60008284620003cd919062000dde565b9050828482620003de919062000e6e565b14620003ef57620003ee62000ea6565b5b809150505b92915050565b828054620004089062000c82565b90600052602060002090601f0160209004810192826200042c576000855562000478565b82601f106200044757805160ff191683800117855562000478565b8280016001018555821562000478579182015b82811115620004775782518255916020019190600101906200045a565b5b509050620004879190620004f2565b5090565b828054828255906000526020600020908101928215620004df579160200282015b82811115620004de578251829080519060200190620004cd929190620003fa565b5091602001919060010190620004ac565b5b509050620004ee919062000511565b5090565b5b808211156200050d576000816000905550600101620004f3565b5090565b5b808211156200053557600081816200052b919062000539565b5060010162000512565b5090565b508054620005479062000c82565b6000825580601f106200055b57506200057c565b601f0160209004906000526020600020908101906200057b9190620004f2565b5b50565b6000604051905090565b600080fd5b600080fd5b600080fd5b6000601f19601f8301169050919050565b7f4e487b7100000000000000000000000000000000000000000000000000000000600052604160045260246000fd5b620005e38262000598565b810181811067ffffffffffffffff82111715620006055762000604620005a9565b5b80604052505050565b60006200061a6200057f565b9050620006288282620005d8565b919050565b600080fd5b600080fd5b600080fd5b600067ffffffffffffffff8211156200065a5762000659620005a9565b5b620006658262000598565b9050602081019050919050565b60005b838110156200069257808201518184015260208101905062000675565b83811115620006a2576000848401525b50505050565b6000620006bf620006b9846200063c565b6200060e565b905082815260208101848484011115620006de57620006dd62000637565b5b620006eb84828562000672565b509392505050565b600082601f8301126200070b576200070a62000632565b5b81516200071d848260208601620006a8565b91505092915050565b600067ffffffffffffffff821115620007445762000743620005a9565b5b602082029050602081019050919050565b600080fd5b6000620007716200076b8462000726565b6200060e565b9050808382526020820190506020840283018581111562000797576200079662000755565b5b835b81811015620007e557805167ffffffffffffffff811115620007c057620007bf62000632565b5b808601620007cf8982620006f3565b8552602085019450505060208101905062000799565b5050509392505050565b600082601f83011262000807576200080662000632565b5b8151620008198482602086016200075a565b91505092915050565b6000604082840312156200083b576200083a62000593565b5b6200084760406200060e565b9050600082015167ffffffffffffffff8111156200086a57620008696200062d565b5b6200087884828501620006f3565b600083015250602082015167ffffffffffffffff8111156200089f576200089e6200062d565b5b620008ad84828501620007ef565b60208301525092915050565b6000819050919050565b620008ce81620008b9565b8114620008da57600080fd5b50565b600081519050620008ee81620008c3565b92915050565b60008115159050919050565b6200090b81620008f4565b81146200091757600080fd5b50565b6000815190506200092b8162000900565b92915050565b600061ffff82169050919050565b6200094a8162000931565b81146200095657600080fd5b50565b6000815190506200096a816200093f565b92915050565b600060ff82169050919050565b620009888162000970565b81146200099457600080fd5b50565b600081519050620009a8816200097d565b92915050565b60006102208284031215620009c857620009c762000593565b5b620009d56102206200060e565b90506000620009e7848285016200091a565b600083015250602082015167ffffffffffffffff81111562000a0e5762000a0d6200062d565b5b62000a1c84828501620006f3565b602083015250604062000a32848285016200091a565b604083015250606082015167ffffffffffffffff81111562000a595762000a586200062d565b5b62000a6784828501620006f3565b606083015250608062000a7d848285016200091a565b60808301525060a062000a93848285016200091a565b60a08301525060c062000aa9848285016200091a565b60c08301525060e062000abf848285016200091a565b60e08301525061010062000ad6848285016200091a565b6101008301525061012062000aee8482850162000959565b6101208301525061014062000b068482850162000959565b6101408301525061016062000b1e848285016200091a565b6101608301525061018062000b368482850162000997565b610180830152506101a062000b4e8482850162000997565b6101a0830152506101c062000b66848285016200091a565b6101c0830152506101e062000b7e8482850162000997565b6101e08301525061020062000b968482850162000997565b6102008301525092915050565b6000806000806080858703121562000bc05762000bbf62000589565b5b600085015167ffffffffffffffff81111562000be15762000be06200058e565b5b62000bef8782880162000822565b945050602062000c0287828801620008dd565b935050604062000c1587828801620008dd565b925050606085015167ffffffffffffffff81111562000c395762000c386200058e565b5b62000c4787828801620009ae565b91505092959194509250565b7f4e487b7100000000000000000000000000000000000000000000000000000000600052602260045260246000fd5b6000600282049050600182168062000c9b57607f821691505b6020821081141562000cb25762000cb162000c53565b5b50919050565b600082825260208201905092915050565b60008190508160005260206000209050919050565b6000815462000ced8162000c82565b62000cf9818662000cb8565b9450600182166000811462000d17576001811462000d2a5762000d61565b60ff198316865260208601935062000d61565b62000d358562000cc9565b60005b8381101562000d595781548189015260018201915060208101905062000d38565b808801955050505b50505092915050565b62000d7581620008b9565b82525050565b6000604082019050818103600083015262000d97818562000cde565b905062000da8602083018462000d6a565b9392505050565b7f4e487b7100000000000000000000000000000000000000000000000000000000600052601160045260246000fd5b600062000deb82620008b9565b915062000df883620008b9565b9250817fffffffffffffffffffffffffffffffffffffffffffffffffffffffffffffffff048311821515161562000e345762000e3362000daf565b5b828202905092915050565b7f4e487b7100000000000000000000000000000000000000000000000000000000600052601260045260246000fd5b600062000e7b82620008b9565b915062000e8883620008b9565b92508262000e9b5762000e9a62000e3f565b5b828204905092915050565b7f4e487b7100000000000000000000000000000000000000000000000000000000600052600160045260246000fd5b6110a58062000ee56000396000f3fe608060405234801561001057600080fd5b50600436106100575760003560e01c8063259060d91461005c57806341c0e1b51461007a5780638da5cb5b14610084578063c4c3fa95146100a2578063f2fde38b146100be575b600080fd5b6100646100da565b6040516100719190610a6e565b60405180910390f35b6100826103c0565b005b61008c610457565b6040516100999190610ad1565b60405180910390f35b6100bc60048036038101906100b79190610c35565b61047b565b005b6100d860048036038101906100d39190610caa565b610578565b005b6100e2610763565b6007604051806102200160405290816000820160009054906101000a900460ff1615151515815260200160018201805461011b90610d06565b80601f016020809104026020016040519081016040528092919081815260200182805461014790610d06565b80156101945780601f1061016957610100808354040283529160200191610194565b820191906000526020600020905b81548152906001019060200180831161017757829003601f168201915b505050505081526020016002820160009054906101000a900460ff161515151581526020016003820180546101c890610d06565b80601f01602080910402602001604051908101604052809291908181526020018280546101f490610d06565b80156102415780601f1061021657610100808354040283529160200191610241565b820191906000526020600020905b81548152906001019060200180831161022457829003601f168201915b505050505081526020016004820160009054906101000a900460ff161515151581526020016004820160019054906101000a900460ff161515151581526020016004820160029054906101000a900460ff161515151581526020016004820160039054906101000a900460ff161515151581526020016004820160049054906101000a900460ff161515151581526020016004820160059054906101000a900461ffff1661ffff1661ffff1681526020016004820160079054906101000a900461ffff1661ffff1661ffff1681526020016004820160099054906101000a900460ff1615151515815260200160048201600a9054906101000a900460ff1660ff1660ff16815260200160048201600b9054906101000a900460ff1660ff1660ff16815260200160048201600c9054906101000a900460ff1615151515815260200160048201600d9054906101000a900460ff1660ff1660ff16815260200160048201600e9054906101000a900460ff1660ff1660ff1681525050905090565b60008054906101000a900473ffffffffffffffffffffffffffffffffffffffff1673ffffffffffffffffffffffffffffffffffffffff163373ffffffffffffffffffffffffffffffffffffffff161461041857600080fd5b60008060009054906101000a900473ffffffffffffffffffffffffffffffffffffffff1690508073ffffffffffffffffffffffffffffffffffffffff16ff5b60008054906101000a900473ffffffffffffffffffffffffffffffffffffffff1681565b6003600001546003600101541015610539576104a6600160036001015461071090919063ffffffff16565b506104c3600360020154600380015461073c90919063ffffffff16565b506104f66001600c836040516104d99190610d74565b90815260200160405180910390205461071090919063ffffffff16565b507fa3dbc2fa41d7dd90b7c37c6eae2759ab00912eaccce7e92b5c19370bfb159bf060016000018260405161052c929190610e6a565b60405180910390a1610575565b7fc4fbc2fe14f13b02acb03413d4cb09401c429c7b402e8218ca1891b31a726daf600160000160405161056c9190610ea1565b60405180910390a15b50565b60008054906101000a900473ffffffffffffffffffffffffffffffffffffffff1673ffffffffffffffffffffffffffffffffffffffff163373ffffffffffffffffffffffffffffffffffffffff16146105d057600080fd5b600073ffffffffffffffffffffffffffffffffffffffff168173ffffffffffffffffffffffffffffffffffffffff16141561060a57600080fd5b8073ffffffffffffffffffffffffffffffffffffffff1660008054906101000a900473ffffffffffffffffffffffffffffffffffffffff1673ffffffffffffffffffffffffffffffffffffffff167f8be0079c531659141344cd1fd0a4f28419497f9722a3daafe3b4186f6b6457e060405160405180910390a3806000806101000a81548173ffffffffffffffffffffffffffffffffffffffff021916908373ffffffffffffffffffffffffffffffffffffffff16021790555050565b6000808314156106da576000905061070a565b600082846106e89190610efc565b90508284826106f79190610f85565b1461070557610704610fb6565b5b809150505b92915050565b600080828461071f9190610fe5565b90508381101561073257610731610fb6565b5b8091505092915050565b60008282111561074f5761074e610fb6565b5b818361075b919061103b565b905092915050565b6040518061022001604052806000151581526020016060815260200160001515815260200160608152602001600015158152602001600015158152602001600015158152602001600015158152602001600015158152602001600061ffff168152602001600061ffff168152602001600015158152602001600060ff168152602001600060ff168152602001600015158152602001600060ff168152602001600060ff1681525090565b60008115159050919050565b6108228161080d565b82525050565b600081519050919050565b600082825260208201905092915050565b60005b83811015610862578082015181840152602081019050610847565b83811115610871576000848401525b50505050565b6000601f19601f8301169050919050565b600061089382610828565b61089d8185610833565b93506108ad818560208601610844565b6108b681610877565b840191505092915050565b600061ffff82169050919050565b6108d8816108c1565b82525050565b600060ff82169050919050565b6108f4816108de565b82525050565b6000610220830160008301516109136000860182610819565b506020830151848203602086015261092b8282610888565b91505060408301516109406040860182610819565b50606083015184820360608601526109588282610888565b915050608083015161096d6080860182610819565b5060a083015161098060a0860182610819565b5060c083015161099360c0860182610819565b5060e08301516109a660e0860182610819565b506101008301516109bb610100860182610819565b506101208301516109d06101208601826108cf565b506101408301516109e56101408601826108cf565b506101608301516109fa610160860182610819565b50610180830151610a0f6101808601826108eb565b506101a0830151610a246101a08601826108eb565b506101c0830151610a396101c0860182610819565b506101e0830151610a4e6101e08601826108eb565b50610200830151610a636102008601826108eb565b508091505092915050565b60006020820190508181036000830152610a8881846108fa565b905092915050565b600073ffffffffffffffffffffffffffffffffffffffff82169050919050565b6000610abb82610a90565b9050919050565b610acb81610ab0565b82525050565b6000602082019050610ae66000830184610ac2565b92915050565b6000604051905090565b600080fd5b600080fd5b600080fd5b600080fd5b7f4e487b7100000000000000000000000000000000000000000000000000000000600052604160045260246000fd5b610b4282610877565b810181811067ffffffffffffffff82111715610b6157610b60610b0a565b5b80604052505050565b6000610b74610aec565b9050610b808282610b39565b919050565b600067ffffffffffffffff821115610ba057610b9f610b0a565b5b610ba982610877565b9050602081019050919050565b82818337600083830152505050565b6000610bd8610bd384610b85565b610b6a565b905082815260208101848484011115610bf457610bf3610b05565b5b610bff848285610bb6565b509392505050565b600082601f830112610c1c57610c1b610b00565b5b8135610c2c848260208601610bc5565b91505092915050565b600060208284031215610c4b57610c4a610af6565b5b600082013567ffffffffffffffff811115610c6957610c68610afb565b5b610c7584828501610c07565b91505092915050565b610c8781610ab0565b8114610c9257600080fd5b50565b600081359050610ca481610c7e565b92915050565b600060208284031215610cc057610cbf610af6565b5b6000610cce84828501610c95565b91505092915050565b7f4e487b7100000000000000000000000000000000000000000000000000000000600052602260045260246000fd5b60006002820490506001821680610d1e57607f821691505b60208210811415610d3257610d31610cd7565b5b50919050565b600081905092915050565b6000610d4e82610828565b610d588185610d38565b9350610d68818560208601610844565b80840191505092915050565b6000610d808284610d43565b915081905092915050565b600082825260208201905092915050565b60008190508160005260206000209050919050565b60008154610dbe81610d06565b610dc88186610d8b565b94506001821660008114610de35760018114610df557610e28565b60ff1983168652602086019350610e28565b610dfe85610d9c565b60005b83811015610e2057815481890152600182019150602081019050610e01565b808801955050505b50505092915050565b6000610e3c82610828565b610e468185610d8b565b9350610e56818560208601610844565b610e5f81610877565b840191505092915050565b60006040820190508181036000830152610e848185610db1565b90508181036020830152610e988184610e31565b90509392505050565b60006020820190508181036000830152610ebb8184610db1565b905092915050565b6000819050919050565b7f4e487b7100000000000000000000000000000000000000000000000000000000600052601160045260246000fd5b6000610f0782610ec3565b9150610f1283610ec3565b9250817fffffffffffffffffffffffffffffffffffffffffffffffffffffffffffffffff0483118215151615610f4b57610f4a610ecd565b5b828202905092915050565b7f4e487b7100000000000000000000000000000000000000000000000000000000600052601260045260246000fd5b6000610f9082610ec3565b9150610f9b83610ec3565b925082610fab57610faa610f56565b5b828204905092915050565b7f4e487b7100000000000000000000000000000000000000000000000000000000600052600160045260246000fd5b6000610ff082610ec3565b9150610ffb83610ec3565b9250827fffffffffffffffffffffffffffffffffffffffffffffffffffffffffffffffff038211156110305761102f610ecd565b5b828201905092915050565b600061104682610ec3565b915061105183610ec3565b92508282101561106457611063610ecd565b5b82820390509291505056fea2646970667358221220a642b30d470109c57828112f09a63cc19bc3133ff41f0710579211f1c9e6305664736f6c634300080b0033",
  "immutableReferences": {},
  "source": "// SPDX-License-Identifier: MIT\r\npragma solidity >=0.4.22 <0.9.0;\r\n\r\nimport \"./safemath.sol\";\r\nimport \"./ownable.sol\";\r\n\r\n/// @title Vote`s data and actions\r\n/// @author @oleh\r\n/// @notice \r\n/// @dev \r\ncontract Vote is Ownable {\r\n\r\n    event NewVoteCreated(string question, uint cost);\r\n    event AnswerTaken(string question, string answers);\r\n    event VoteFilled(string question);\r\n\r\n    using SafeMath for uint;\r\n\r\n    struct Core {\r\n        string question;\r\n        string[] answers;\r\n    }\r\n\r\n    struct RespondentsInfo {\r\n        uint maxRespondents;\r\n        uint nRespondents;\r\n        uint voiceCost;\r\n        uint balance;\r\n    }\r\n\r\n    struct Filters{\r\n        bool isCheckedCitizenship;\r\n        string citizenship;\r\n\r\n        bool isCheckedProfession;\r\n        string profession;\r\n\r\n        bool isCheckedGender;\r\n        bool gender;\r\n\r\n        bool isCheckedDriversLicense;\r\n        bool haveDriversLicense;\r\n\r\n        bool isCheckedWeight;\r\n        uint16 minWeight;\r\n        uint16 maxWeight;\r\n\r\n        bool isCheckedAge;\r\n        uint8 minAge;\r\n        uint8 maxAge;\r\n\r\n        bool isCheckedHeight;\r\n        uint8 minHeight;\r\n        uint8 maxHeight;\r\n    }\r\n\r\n    Core core;\r\n    RespondentsInfo respondentsInfo;\r\n    Filters filters;\r\n\r\n    mapping (string => uint) answerToRespondentsQuantity;\r\n\r\n    /// @notice Created new vote in system\r\n    /// @param _core Text of vote`s question and all vote`s answer options\r\n    /// @param _maxRespondents Number of respondents to vote\r\n    /// @param _voiceCost Reward for one respondent for voting\r\n    /// @param _filters Filters which new vote will using for users\r\n    constructor(Core memory _core, uint _maxRespondents, uint _voiceCost, Filters memory _filters) {\r\n        // Initialize vote data\r\n        core = _core;\r\n        respondentsInfo = RespondentsInfo(_maxRespondents, 0, _voiceCost, _maxRespondents.mul(_voiceCost));\r\n        filters = _filters;\r\n\r\n        // Emit event about new vote in VoteS\r\n        emit NewVoteCreated(core.question, respondentsInfo.voiceCost);\r\n    }\r\n\r\n    /// @notice Change vote statistics: increment one of answer option counter\r\n    /// @param _answer Incremented answer option\r\n    function addRespondentAnswer(string memory _answer) external {\r\n        if (respondentsInfo.nRespondents < respondentsInfo.maxRespondents) {\r\n            // Registr new anwer and substruct VCE from vote balance\r\n            respondentsInfo.nRespondents.add(1);\r\n            respondentsInfo.balance.sub(respondentsInfo.voiceCost);\r\n            answerToRespondentsQuantity[_answer].add(1);\r\n\r\n            // Emit event about new answer\r\n            emit AnswerTaken(core.question, _answer);\r\n        } else {\r\n            // Emit event about vote filling\r\n            emit VoteFilled(core.question);\r\n        }\r\n    }\r\n\r\n    /// @notice Returns vote requirements\r\n    /// @return Vote requirements\r\n    function getFilters() external view returns (Filters memory) {\r\n        return filters;        \r\n    }\r\n\r\n    /// @notice Test function deleted this contract\r\n    function kill() public onlyOwner {\r\n        address payable payableOwnerAddress = payable(address(owner));\r\n        selfdestruct(payableOwnerAddress);\r\n    }\r\n}\r\n",
  "sourcePath": "/mnt/d/IT/BlockChain/VoteS/contracts/Vote.sol",
  "compiler": {
    "name": "solc",
    "version": "0.8.11+commit.d7f03943.Emscripten.clang"
  },
  "schemaVersion": "3.4.4",
  "updatedAt": "2022-01-16T18:42:04.852Z",
  "devdoc": {
    "author": "@oleh",
    "kind": "dev",
    "methods": {
      "addRespondentAnswer(string)": {
        "params": {
          "_answer": "Incremented answer option"
        }
      },
      "constructor": {
        "params": {
          "_core": "Text of vote`s question and all vote`s answer options",
          "_filters": "Filters which new vote will using for users",
          "_maxRespondents": "Number of respondents to vote",
          "_voiceCost": "Reward for one respondent for voting"
        }
      },
      "getFilters()": {
        "returns": {
          "_0": "Vote requirements"
        }
      },
      "transferOwnership(address)": {
        "details": "Allows the current owner to transfer control of the contract to a newOwner.",
        "params": {
          "newOwner": "The address to transfer ownership to."
        }
      }
    },
    "title": "Vote`s data and actions",
    "version": 1
  },
  "userdoc": {
    "kind": "user",
    "methods": {
      "addRespondentAnswer(string)": {
        "notice": "Change vote statistics: increment one of answer option counter"
      },
      "constructor": {
        "notice": "Created new vote in system"
      },
      "getFilters()": {
        "notice": "Returns vote requirements"
      },
      "kill()": {
        "notice": "Test function deleted this contract"
      }
    },
    "version": 1
  }
}